:020000040800F2
:1000000010490120F9020008DD0F0008F30D000877
:10001000D90F0008A1080008A92C00080000000062
:10002000000000000000000000000000390200088D
:10003000E10A00080000000095020008812A00087B
:100040001303000813030008130300081303000838
:100050001303000813030008130300081303000828
:100060001303000813030008130300081303000818
:100070001303000813030008130300081303000808
:1000800013030008130300081303000813030008F8
:1000900013030008130300081303000813030008E8
:1000A00013030008130300081303000813030008D8
:1000B00013030008130300081303000813030008C8
:1000C00013030008130300081303000813030008B8
:1000D00013030008292C0008130300081303000869
:1000E0001303000813030008130300081303000898
:1000F0001303000813030008130300081303000888
:1001000013030008951000081303000813030008E8
:100110001303000813030008130300081303000867
:100120001303000813030008130300081303000857
:100130001303000813030008130300081303000847
:100140001303000813030008130300081303000837
:100150001303000813030008130300081303000827
:100160001303000813030008130300081303000817
:100170001303000813030008130300081303000807
:10018000130300081303000800F002F800F044F81D
:100190000AA090E8000C82448344AAF10107DA45E2
:1001A00001D100F039F8AFF2090EBAE80F0013F0F0
:1001B000010F18BFFB1A43F001031847BC0E0300E0
:1001C000DC0E0300103A24BF78C878C1FAD8520771
:1001D00024BF30C830C144BF04680C6070470000C1
:1001E0000023002400250026103A28BF78C1FBD840
:1001F000520728BF30C148BF0B607047642900F028
:100200002B81732900F0B682002070471FB506F0DD
:100210002FF91FBD10B510BD00F010FB1146FFF700
:10022000F5FF05F035F800F02EFB03B4FFF7F2FF01
:1002300003BC02F0C5FE00002C4B19680868B0E84A
:10024000F04F80F30988BFF36F8F4FF0000080F309
:10025000118870470000000008480068006880F3BB
:1002600008884FF0000080F3148862B661B6BFF3CF
:100270004F8FBFF36F8F00DF00BF00BF08ED00E0BE
:10028000DFF80C00016841F470010160704700BFA5
:1002900088ED00E0EFF30980BFF36F8F134B1A680E
:1002A0001EF0100F08BF20ED108A20E9F04F1060FB
:1002B00009B44FF0500080F31188BFF34F8FBFF3A4
:1002C0006F8F05F04BFF4FF0000080F3118809BCE1
:1002D00019680868B0E8F04F1EF0100F08BFB0ECC6
:1002E000108A80F30988BFF36F8F70473C000020AD
:1002F000EFF3058070470000094880470948004730
:10030000FEE7FEE7FEE7FEE7FEE7FEE7FEE7FEE7C5
:10031000FEE7FEE704480549054A064B7047000022
:10032000C12B000889010008104301201049012059
:100330001045012010450120704710B54C1084EA8B
:10034000530404D54042C1F1000138BF491E1B428D
:1003500004D55242C3F1000338BF5B1E00F028F9F8
:1003600014F0804F04D04042C1F1000138BF491E53
:1003700014F0004F04D05242C3F1000338BF5B1E9B
:1003800010BD00000FB4044910B503AA029800F094
:10039000F5F910BC5DF814FB040000202DE9F041D4
:1003A0000E460446002020622046E168884730B3AC
:1003B000252805D0D4E901219047206A401CF2E7A6
:1003C000E168204600278847050018D0A5F14100C4
:1003D000192802D820354FF40067324629462046B6
:1003E0002760FFF70BFF40B1012804D0F61D26F06F
:1003F00007060836D8E7361DD6E72846DAE7206A2A
:10040000BDE8F08170B50C460546012A05D0287874
:10041000800600D5EA69002302E0012305E05B1CA9
:10042000934202D2E05C0028F9D1A869E618C01A0C
:10043000A861286A184428622846AFF3008004E0C7
:10044000D5E9012114F8010B9047B442F8D32846AE
:10045000AFF3008070BD00002DE9F0410646002496
:1004600010687529314616A510D0AFF3008000281A
:1004700002DA404213A507E031688A0701D512A5C8
:1004800002E0490704D511A5012401E0AFF3008083
:1004900000210A2206F1240709E0B0FBF2FCB0FBC0
:1004A000F2F302FB1C00303078541846491C002837
:1004B000F3D123462A463046BDE8F04100F0EFB8BC
:1004C000000000002D0000002B00000020000000B4
:1004D000032A40F2308010F0030C00F0158011F870
:1004E000013BBCF1020F624498BF11F801CB00F848
:1004F000013B38BF11F8013BA2F1040298BF00F89C
:1005000001CB38BF00F8013B11F0030300F0488134
:10051000083AC0F0088051F8043B083A51F804CB7F
:10052000A0E80810F5E7121D5CBF51F8043B40F845
:10053000043BAFF30080D20724BF11F8013B11F850
:1005400001CB48BF11F8012B24BF00F8013B00F894
:1005500001CB48BF00F8012B70474FF0000200B5F7
:10056000134694469646203922BFA0E80C50A0E8D6
:100570000C50B1F12001BFF4F7AF090728BFA0E884
:100580000C5048BF0CC05DF804EB890028BF40F850
:10059000042B08BF704748BF20F8022B11F0804F92
:1005A00018BF00F8012B70477047704770477047BD
:1005B00053EA020C00F069802DE9F04B4FF0000681
:1005C000002B1FBFB3FA83F503FA05F424FA05F6EE
:1005D0005E4012BF1643B2FA82F502FA05F4C5F185
:1005E00020051EBF22FA05FC44EA0C04203556EA19
:1005F000044C4FEA144418BF641C4FF000084FF03D
:100600000009904271EB030C39D3002919BFB1FAEC
:1006100081F701FA07F6B0FA80F700FA07F6C7F19A
:1006200020071EBF20FA07FC46EA0C062037B6FB5F
:10063000F4FCA7EB0507103F07F01F0BCBF12006DA
:100640000CFA0BFB2CFA06F644BFB3460026202F0B
:10065000A4BF5E464FF0000B5BEA060C08BF4FF0EC
:10066000010B19EB0B09ABFB027C48EB0608C01B26
:1006700006FB02CC0BFB03CC71EB0C01C1E70B4674
:10068000024641464846BDE8F08B13B54FF00000E6
:100690004FF00001AFF30080BDE81C4070472DE92A
:1006A000F0470D4699469246044600F12408016839
:1006B000880604D5E06921F01001216000E00120E6
:1006C000A84201DD471B00E00027A1697A1902EB6F
:1006D0000900081AA0612078C00602D42046AFF3B2
:1006E0000080002608E0D4E901211AF806009047AE
:1006F000206A401C761C20624E45F4DB2078C00640
:100700000AD52046AFF3008006E0D4E9012130206D
:100710009047206A401C2062381EA7F10107F4DCD4
:1007200007E0D4E9012118F805009047206A401C31
:100730002062281EA5F10105F3DC2046AFF30080FE
:100740002078000602D50220BDE8F0870120FBE7F3
:1007500010B5436913B1AFF3008001E0FFF752FE1B
:10076000012010BD127800F124010A7000224A70A5
:100770000122EDE711684FF0FF32E9E7074B70B552
:100780000D467B4400F043F80446284600F052F83A
:1007900010B14FF0FF3070BD204670BD53480000CF
:1007A00010B5203AC0F00B80B1E81850203AA0E80C
:1007B0001850B1E81850A0E81850BFF4F5AF5FEA40
:1007C000027C24BFB1E81850A0E8185044BF18C9F3
:1007D00018C0BDE810405FEA827C24BF51F8043B9A
:1007E00040F8043B08BF7047D20728BF31F8023BEE
:1007F00048BF11F8012B28BF20F8023B48BF00F882
:10080000012B704701694A1C02610878704700B5E6
:100810008FB0CDE901310021059105497944CDE939
:10082000031011466846FFF7B9FD0FB000BD000088
:10083000E5FFFFFF007B00F080007047754600F089
:100840002BF8AE4605006946534620F00700854662
:1008500018B020B5FFF75EFDBDE820404FF0000660
:100860004FF000074FF000084FF0000B21F0070198
:10087000AC46ACE8C009ACE8C009ACE8C009ACE8DB
:10088000C0098D46704710B50446AFF3008020467E
:10089000BDE81040FFF7C9BC00487047B0420120D6
:1008A00000BFFEE700224FF4803105E00A480068EF
:1008B00000F0800000B103E0081EA1F10101F5D1B4
:1008C00000BF09B90320704740F2FF50024B1B1DC7
:1008D00018601046F7E70000342C0140024605E09E
:1008E0001548016801F0450000B100E0F8E700BFDD
:1008F00001F0040028B104200F4B1B1D18600320D9
:10090000704701F0010020B101200B4B1B1D186046
:10091000F6E7094824380068904201D01020EFE73C
:1009200040F2FF50044B1B1D18600348203800683C
:1009300008231840C0B2E3E7342C014010B5002072
:100940004FF4803205E0164B196801F0450303B1FE
:1009500003E0131EA2F10102F5D100BF12B101F0B4
:1009600004034BB103200E4B1B1D1B6843F0040313
:100970000B4C241D236010BD01F0010343B1012085
:10098000074B1B1D1B6843F00103054C241D23600E
:1009900040F2FF53024C241D236000BFEBE7000030
:1009A000342C014005E00E48016801F0450000B11B
:1009B00000E0F8E700BF01F0040048B10848001D5E
:1009C000006840F00400064A121D106003207047C2
:1009D00040F2FF50024A121D10600020F7E70000AD
:1009E000342C014070B503460C46002505E0244830
:1009F000026802F0450000B100E0F8E700BF02F035
:100A0000040048B11E48001D006840F004001C4E60
:100A1000361D3060032070BD02F0010048B1184857
:100A2000001D006840F00100154E361D30600120A9
:100A3000F1E7134824380068984201D01020EAE713
:100A400040F2FF500E4E361D30600D4820380168D0
:100A500001F4604018B9080C20802846DBE701F457
:100A6000005008B11320D6E701F4804008B11020EF
:100A7000D1E701F4004008B10F20CCE72846CAE7CF
:100A8000342C014010B500204FF4803205E0134BA8
:100A9000196801F0450303B103E0131EA2F101023E
:100AA000F5D100BF12B101F004034BB103200B4B91
:100AB0001B1D1B6843F00403084C241D236010BD5C
:100AC00001F0400343B10020044B1B1D1B6843F0A1
:100AD0004003024C241D236000BFF0E7342C01408A
:100AE00070470000FCB507460D4600260024002094
:100AF0000090019008220121102000F0CFFA102070
:100B0000FFF7ECFE04460CB12046FCBD3A0401217F
:100B1000372000F0C3FA3720FFF7E0FE04460CB19F
:100B20002046F2E7012303220821101F00F0CCFA2F
:100B300000220121332000F0B1FA3320FFF7CEFE6E
:100B400004460CB12046E0E70DE03C48006800F4A4
:100B5000001040B139484C3000684DF82600761C32
:100B6000022E00D306E03548006840F22A610840B2
:100B70000028EAD000BF3148006800F0080048B102
:100B80002E48001D006840F008002C49091D08602F
:100B90000420BAE72948006800F0020048B127485D
:100BA000001D006840F002002449091D0860022071
:100BB000ABE72248006800F0200048B11F48001D44
:100BC000006840F020001D49091D086006209CE7D0
:100BD0001A48006800F4007048B11848001D006809
:100BE00040F400701549091D086007208DE740F2A8
:100BF000FF501249091D086000980006009901F491
:100C00007F4140EA0120009901F47F0140EA112070
:100C1000009940EA1160686001980006019901F4AA
:100C20007F4140EA0120019901F47F0140EA11204F
:100C3000019940EA11602860204666E7342C0140A3
:100C400030B5CC1000F1200353F824304C07E50EEA
:100C50000F24AC40A343CD1000F1200444F825300C
:100C6000CC1000F1200353F824304C07E40E02FAB4
:100C700004F42343CD1000F1200444F8253030BDA6
:100C8000F0B50A4600210023002400BF3DE0012505
:100C900005FA01F3156805EA03049C4234D105689E
:100CA0004F000326BE40B543056015794E00B540A0
:100CB0000668354305601579012D02D01579022D9E
:100CC00016D185684F000326BE40B543856055792F
:100CD0004E00B540866835438560456801268E40E4
:100CE000B5434560456896798E40B6B23543456058
:100CF000C5684F000326BE40B543C560D5794E0098
:100D0000B540C6683543C560491C1029BFD3F0BD46
:100D10002DE9F0470C46DDE90867002100258C46E7
:100D200000BF60E04FF0010808FA01F504EA050C85
:100D3000AC4557D1D0F800804FEA410A4FF0030983
:100D400009FA0AF928EA0908C0F80080D0F80080FA
:100D50004FEA410902FA09F948EA0908C0F8008097
:100D6000012A01D0022A27D1D0F808804FEA410A8F
:100D70004FF0030909FA0AF928EA0908C0F80880BF
:100D8000D0F808804FEA410906FA09F948EA09084B
:100D9000C0F80880D0F804904FF0010808FA01F874
:100DA00029EA0809C0F80490D0F8048003FA01F990
:100DB00048EA0908C0F80480D0F80C804FEA410ADC
:100DC0004FF0030909FA0AF928EA0908C0F80C806B
:100DD000D0F80C804FEA410907FA09F948EA0908F6
:100DE000C0F80C80491C10299CD3BDE8F087018312
:100DF000704700BFFEE772B6704762B670470000EA
:100E00001CB504460020019000902248008802048E
:100E100001210D2000F042F91F480068009002E017
:100E20001D4800680090009800F045000028F7D0A9
:100E3000009800F0010048B11748001D006840F01C
:100E400001001549091D086001201CBD009800F033
:100E5000040048B11048001D006840F004000E492D
:100E6000091D08600320F0E70B48243800680D28AE
:100E700001D01020E9E740F2FF500749091D086042
:100E800005482038006801900198C0F34320207085
:100E90000020DAE710000020342C01401CB5104877
:100EA000006840F001000E4908600846006840F004
:100EB00010000860012000210B460A46CDE9001011
:100EC0001C210848FFF724FF022000210B460A4698
:100ED000CDE9001001210448FFF71AFF1CBD0000F6
:100EE0003038024000100240000002401CB50121D1
:100EF000084600F075F8C020009001208DF804002D
:100F000000208DF8060003208DF8050001208DF8E3
:100F1000070069460348FFF7B3FEC0210148FFF709
:100F200066FF1CBD000002402DE9F04107468846DF
:100F300014461D46284600F033F8C5F1040007FAB0
:100F400000F60F20284100EA0800064306F00F06CD
:100F5000E21704EBD2625211920002F1E022D2F8C1
:100F600000212146E31704EBD3635B11A4EB431C80
:100F7000012303FA0CF31A432046E31704EBD3636F
:100F80005B119B0003F1E023C3F800210348005DDF
:100F900040EA061001490855BDE8F08100E400E090
:100FA0000146072323EA01021202054B18684FF697
:100FB000FF031840034B18431043014B1860704760
:100FC0000CED00E00000FA054A0A52020243014B10
:100FD0001A60704708ED00E000BFFEE770470000B0
:100FE00029B1064A12680243044B1A6004E0034A1E
:100FF00012688243014B1A6070470000303802408B
:101000007CB50546002400200090019000260DB11B
:10101000022600E000261848006800F0007008B1C1
:101020000E207CBD1549098888B26946FFF75AFD34
:1010300004460CB12046F4E7019800F48020C0B1CA
:101040000E48008802040121372000F027F83720DD
:10105000FFF744FC04460CB12046E2E7324601218A
:10106000062000F01BF80620FFF738FC0446204657
:10107000D7E72520D5E70000142C01401000002000
:101080000146034A106820F0FF00084310607047D3
:10109000042C014000B500F04FFC00BD10B5034624
:1010A000084C2260241D20686FF30A0003F03F04FF
:1010B000204340EA811000BF40F48060014C241DB1
:1010C000206010BD082C014070B504460B4D2C600B
:1010D00021F07E45094E361D3560351D286820F00B
:1010E000F70040EA021000BF03F0010540EA4500A6
:1010F00040F00100351D286070BD0000242C014027
:1011000030B50346002000BF204C246804F00104E1
:10111000002CF9D11D4C503C246844F074641B4DE4
:10112000503D2C601A4C194D08352C602C1D236045
:1011300000242D1F2C6040EA821000BF00BF40F445
:10114000806040F4805040F4804040F4403040F4EF
:10115000001040F4000040F000602C1F20600B4C99
:101160001434206820F0070040F0040040F0030031
:1011700020602C1F246844F020042D1F2C602C4676
:10118000246844F001042C6030BD00005864024023
:10119000802C014030B5044600251648007803280D
:1011A00001D1272030BD1348007838B111480078AC
:1011B000012803D00F480078022818D1022C01D34F
:1011C0002720EFE7E0B2FFF71BFF05467DB90A488D
:1011D000006820F4C0500849086008460068A1B2C1
:1011E00040EAC120044908600846006808602846B3
:1011F000D8E700000C000020042C0140F0B50146A7
:1012000000200022BE4B1B7881F85630BD4B1B8856
:10121000A1F85430BC4B1B681A0E93090B70C2F333
:1012200083034B7002F003038B70B74B1B68C3F34F
:101230000742CA70B44B1B88C3F307220A71B24B32
:101240001A784A715B681A0E1301CB80AE4B5B684B
:10125000C3F30742CB8843EA1213CB8002F00F039B
:101260000B72A94B9B88C3F30722D3094B72C2F3BD
:1012700080138B72C2F34013CB72C2F300130B7353
:1012800000234B739E4B1B783BB19D4B1B78012B6E
:1012900003D09B4B1B78032B4FD193071B0D0B6186
:1012A000994B1A790B6943EA82030B61964B9B6851
:1012B0001A0E0B6943EA92130B61C2F3C2030B755A
:1012C00002F007034B75904B9B68C3F30742530929
:1012D0008B75C2F38203CB7593075B0F0B768A4B3A
:1012E0001B89C3F307220B7E43EAD2130B760B69EB
:1012F0005B1C0024C1E912340B7E9B1C012404FA00
:1013000003F3DC17D1E91256A5FB037C06FB03C3EC
:1013100005FB0433C1E912730C7A0123A3400B656A
:101320000024D1E912650B6DA6FB037C05FB03C30A
:1013300006FB0433C1E912732EE0714B1B78022BBC
:101340002AD1714B1A7993069B0A0B616E4B9B68ED
:101350001A0E0B6943EA02230B616B4B9B68C3F3C4
:1013600007420B6913430B61674B1B89C3F30722C9
:101370000B695B1C4FF40074A3FB04464FF48063BD
:101380000025A4FB037C06FB03C304FB0533C1E972
:1013900012734FF400730B65C2F3801301F8193F09
:1013A00093065B0E4B70584B1A7A4B7843EAD21374
:1013B0004B7002F07F038B70534BDB681A0ED3091E
:1013C000CB70C2F341130B71C2F382034B719307CD
:1013D0001B0F8B714C4BDB68C3F307428B7943EADD
:1013E00092138B71C2F34013CB7100230B7202F086
:1013F00001034B72444B9B89C3F30722D3098B72C1
:10140000C2F38013CB72C2F340130B73C2F3001309
:101410004B73C2F381038B7302F00303CB733A4B1C
:101420001A7B53080B7401234B74384B1B681A0E3C
:10143000CA741939354B1B68C3F307421402CC85B3
:10144000324B1B88C3F30722CB8D1343CB852F4B25
:101450001A7814060C635B681A0E0B6B43EA02449D
:101460000C632A4B5B68C3F307420B6B43EA02240D
:101470000C63264B9B88C3F307220B6B13430B6350
:10148000224B1A7934235A54204B9B681A0E352369
:101490005A541E4B9B68C3F3074214068C631B4BC4
:1014A0001B89C3F307228B6B43EA02448C63174BFF
:1014B0001A7A8B6B43EA02248C63144BDB681A0E96
:1014C0008B6B13438B63114BDB68C3F307423C23E5
:1014D0005B5C43EA12143C235C5413071C0DCC875D
:1014E0000A4B9B89C3F30722CB8F1343CB87074B50
:1014F0001A7B540840235C54012441235C54F0BD02
:101500000C0000201000002070110020801100202D
:1015100008B500200090684600F0A8FD08B1FF2043
:1015200008BD0098C0F34320FAE700007CB5002412
:1015300000255548006840F00400534908600846FB
:10154000006840F0080008600846006840F4800029
:1015500008604D481430006840F400604A49143176
:10156000086049480C38006840F4006046490C396E
:1015700008600120022100230A46CDE900104FF443
:10158000F8514248FFF7C4FB0120022100230A461C
:10159000CDE9001004213E48FFF7BAFB0C220821D8
:1015A0003A48FFF74DFB0C2209213848FFF748FB6A
:1015B0000C220A213548FFF743FB0C220B2133484C
:1015C000FFF73EFB0C2211463048FFF739FB0C2297
:1015D00002212F48FFF734FB2B480C38006820F419
:1015E000006029490C39086000202A490860091D5B
:1015F0000860091D0860091D08602649243108603B
:10160000091D0860091D0860234822493831086017
:101610000020091D08600223312200210846FFF73F
:1016200083FC00F0C9F8044614B900F03BF8044606
:101630001CB91A48FFF7E2FD044634B91749B1F85E
:101640005410080400F006FD04461CB90120FFF701
:10165000A1FD04461CB112480078032812D10F489E
:1016600090F8560020B10D4890F85600012801D19D
:10167000022500E000252846FFF702FD002000F0CB
:1016800013FD044620467CBD30380240000802406D
:10169000000C0240002C0140FF07C0009011002008
:1016A0000C00002018B50024012000903D4800687F
:1016B00000F0030008B9252018BD3B480078042835
:1016C0001BD0002203210220FFF7E8FCFFF736F9C8
:1016D00004460CB12046EFE7324814300068334925
:1016E000086030481830006848602E481C30006898
:1016F00088602C4820300068C8602B48007858B1BA
:1017000029480078012807D027480078062803D008
:101710002548007802280CD1002201210320FFF780
:10172000BDFC69460320FFF75DF904460CB1204675
:10173000C2E71D48007803280CD1BDF80000020460
:1017400001210320FFF7AAFCFFF7F8F804460CB1CB
:101750002046B1E714480078042821D0BDF80000E5
:1017600013490860BDF80000020403210920FFF7B7
:1017700095FCFFF7E3F804460CB120469CE70948C6
:10178000143000680B49086006481830006848604B
:1017900004481C3000688860024820300068C86037
:1017A000002089E7002C01400C000020801100205F
:1017B00010000020701100202DE9F04300270024C4
:1017C00000260025A046A14600205749086008468B
:1017D00000680860084600680860084600680860FD
:1017E0000846006808600846006808607620FFF731
:1017F00047FC03204C49091F0860081D006840F49D
:101800008070091D086000BF0BE0002211461046E1
:10181000FFF744FCFFF746F8044604B903E0781CE0
:10182000C7B24A2FF1DB00BF14B12046BDE8F083F8
:101830004FF4D57201210820FFF730FCFFF722F9A1
:10184000044624B90120394908704FF0804900222C
:1018500001213720FFF722FC3720FFF73FF804462D
:1018600084BB21E0002201213720FFF717FC37203D
:10187000FFF734F804460CB12046D7E72C4849EA74
:10188000000201212920FFF709FCFFF78BF804462D
:101890000CB12046CAE7244810300668012080EACF
:1018A000D67080F001086D1CB8F1000F03D14FF61F
:1018B000FF708542D6D34FF6FF70854203D31B24B9
:1018C0002046B3E707E006F08040061E29D002203C
:1018D0001649087025E013E0164A01210846FFF773
:1018E000DDFBFFF75FF804460CB120469EE70E488B
:1018F00010300668012080EAD67080F001086D1C67
:10190000B8F1000F03D14FF6FF708542E4D34FF6D4
:10191000FF70854202D31B24204687E7032003493A
:101920000870204682E70000042C01400C000020D3
:10193000000010800080FF8000B55648006800F469
:10194000807038B35448007801280AD10022012160
:101950000C20FFF7A3FB0C20FEF7C0FF4F490870D7
:1019600002E000204D4908704A48001D006840F41C
:1019700080704849091D0860081D00684CF23A3122
:1019800088434449083108600120454908704348AC
:10199000007800BD3F48006800F0020098B13D4863
:1019A000001D006840F002003A49091D0860081D4A
:1019B00000684CF23A318843364908310860022009
:1019C00036490870E5E73348006800F0080098B130
:1019D0003048001D006840F008002E49091D0860CD
:1019E000081D00684CF23A3188432A4908310860E2
:1019F00004202A490870CCE72648006800F020003F
:101A000098B12448001D006840F020002149091DBC
:101A10000860081D00684CF23A3188431D490831BE
:101A2000086006201D490870B3E71A48006800F0F6
:101A3000100098B11748001D006840F010001549CB
:101A4000091D0860081D00684CF23A3188431149AD
:101A5000083108600520114908709AE70D480068B0
:101A600000F4007098B10B48001D006840F400704D
:101A70000849091D0860081D00684CF23A31884386
:101A800004490831086007200449087081E70020F4
:101A90007FE70000342C01401500002016000020D4
:101AA000170000202DE9F84F8146174698460A9CFA
:101AB0004FF0000AD3464D464FF0FF36B9F1000F04
:101AC00002D12620BDE8F88F0020814908608148B6
:101AD0000078022805D10402780A40EAC8574FEA84
:101AE000682800231A461946581EFFF7EDFA784871
:101AF0001838006800F0007008B10E20E2E7002CF2
:101B000017DDB4F5006F14DC601E204088B9204654
:101B100001F0FCFA0090224601211020FFF7BEFAE6
:101B20001020FEF7DBFE8246BAF1000F03D05046CC
:101B3000C8E72620C6E701232146981E009AFFF732
:101B4000C3FA3A4601211120FFF7A8FA1120FEF747
:101B5000C5FE8246BAF1000F01D05046B2E75E489A
:101B6000007800287AD1FFF746F919E05848083084
:101B7000006800F4004078B14FF0000B06E05448D4
:101B80005430006845F82B000BF1010BBBF1080F36
:101B9000F5D32035514E03E00EB9042092E7761EAE
:101BA0004B480830006840F22A6108400028DDD028
:101BB00047480830006800F0080048B144480C303D
:101BC000006840F0080042490C310860042079E7C1
:101BD0003F480830006800F0020048B13C480C3033
:101BE000006840F002003A490C310860022069E7C1
:101BF00037480830006800F0200048B134480C3005
:101C0000006840F0200032490C310860062059E796
:101C10002F480830006800F4007048B12C480C30A0
:101C2000006840F400702A490C310860072049E739
:101C300004E027485430006828602D1D24480830EF
:101C4000006800F400100028F3D1FFF7D6F840F246
:101C5000FF501F490C31086037E0FFE71E4800784D
:101C6000012832D100201E4908701E4908701E4903
:101C7000087017481030006840F22A3108431449B0
:101C8000103108601248006840F0080010490860F0
:101C9000002221464846FFF733FA00E0761E13483B
:101CA000006800F0006038B90F48007820B90C488F
:101CB000007808B9002EF1D10EB9042002E70848D7
:101CC000007810B1064890F800A05046FAE60000EF
:101CD0002C2C01400C00002014000020FFFF7F008E
:101CE00016000020150000201700002000640240AC
:101CF0002DE9FE4F83460E469146002002900025B6
:101D000034462148007818B1680240EAD45564028C
:101D10000BF00300F0B14FF0000A18E04FF4007030
:101D200000904FEA4A20071945EBE0733A461748FE
:101D3000FFF7B8FE02904FF4007214495846FEF7C0
:101D4000C7FB0BF5007B0AF1010000F0FF0ACA4552
:101D5000E4DB16E0B9F1010F09D14FF4007022461F
:101D60002B4600905846FFF79DFE029009E04FF485
:101D7000007022462B46CDE90009584600F008F8CD
:101D800002900298BDE8FE8F0C000020E8110020B0
:101D90002DE9F84F834617469846DDE90A464FF08D
:101DA0000009CA464FF0FF35A148C0F800B0002036
:101DB000A0490860A0480078022805D10402780AEA
:101DC00040EAC8574FEA682800231A461946581EA9
:101DD000FFF77AF997481838006800F0007010B1E2
:101DE0000E20BDE8F88F002C17DDB4F5006F14DC71
:101DF000601E204088B9204601F088F900902246F4
:101E000001211020FFF74AF91020FEF767FD8146F7
:101E1000B9F1000F03D04846E3E72620E1E7012EA1
:101E20007AD906FB04F0B0F1007F01D32620D8E771
:101E300006FB04F10123981E009AFFF745F93A4684
:101E400001211220FFF72AF91220FEF747FD8146F3
:101E5000B9F1000F01D04846C3E778480078002860
:101E60007ED1FEF7C8FF1FE072480830006800F41A
:101E70000040A8B14FF0000A08E06E4854300068F6
:101E80006B49096841F82A000AF1010ABAF1080F02
:101E9000F3D367480068203065490860684D03E067
:101EA0000DB904209DE76D1E62480830006840F2BD
:101EB0002A3108400028D7D05E480830006800F07A
:101EC000080048B15B480C30006840F008005949F0
:101ED0000C310860042084E756480830006800F0A0
:101EE000020048B153480C30006840F002005149EC
:101EF0000C310860022074E74E480830006800F09A
:101F0000200050B14B480C30006840F02000494997
:101F10000C310860062064E787E046480830006816
:101F200000F4007048B143480C30006840F4007081
:101F300040490C310860072053E70AE03D4854301F
:101F400000683B490968086039480068001D384945
:101F5000086038480830006800F40010002800E0ED
:101F600027E0EBD133480830006800F48070C0B13E
:101F70003148007838B130480078012803D02E4825
:101F8000007802280DD1002201210C20FFF786F8ED
:101F90000C20FEF7A3FC8146B9F1000F01D04846A2
:101FA0001FE7FEF72AFF40F2FF5022490C3108607C
:101FB0003BE022480078012837D1002021490870F1
:101FC000012021490870002020490870194810306C
:101FD000006840F22A31084316491031086015485C
:101FE000006840F008001349086006FB04F1002275
:101FF0005846FFF785F800E06D1E1548006800F0B0
:10200000006008B9002DF7D10DB90420E9E600BF42
:102010000E48007818B90B4800780028F8D0094815
:10202000007810B1074890F800904846D9E60000C3
:10203000180000202C2C01400C000020140000206F
:10204000FFFF7F0016000020150000201700002071
:102050000064024010B50446224601210720FFF724
:102060001DF80720FEF73AFC10BD000030B504460D
:10207000002514B92625284630BD094800880204E9
:1020800001210D20FFF70AF80D20FEF727FC054679
:102090000DB12846F0E70348006820602846EBE7CA
:1020A00010000020142C014001460020012900D01E
:1020B00011B9024B197000E026207047140000206F
:1020C0002DE9FF5F86B017469846149D0026002034
:1020D0000590049000248146039082460290019569
:1020E000DDF818B0DDF818B0BBF1000F03D12620E1
:1020F0000AB0BDE8F09F0020BA49086000231A46E4
:102100001946401EFEF7E0FFB6481838006800F098
:10211000007008B10E20EBE7B3480078022805D123
:102120000502780A40EAC8574FEA6828002D15DDF5
:10213000B5F5006F12DC681E284078B9284600F01B
:10214000E5FF05902A4601211020FEF7A7FF102089
:10215000FEF7C4FB06461EB13046C9E72620C7E796
:10216000A2480088020401210D20FEF797FF0D20F0
:10217000FEF7B4FB06460EB13046B9E79948183869
:10218000006803904FF0FF3412E0641E9748008807
:10219000020401210D20FEF781FF0D20FEF79EFBBA
:1021A00006460EB13046A3E78E4818380068039003
:1021B000039800F4807008B9002CE6D10CB92920EE
:1021C00096E73A4601211820FEF768FF1820FEF72F
:1021D00085FB06460EB130468AE700208449087028
:1021E00000232946401E059AFEF76EFF4FF0FF348C
:1021F00080480078002871D1FEF7FDFD46E079485F
:102200000830006800F48040D8B30198A0EB0900C2
:10221000202822D20198A0EB090000F0030020B989
:102220000198A0EB0900800804E00198A0EB0900E8
:102230008008401C02904FF0000A0AE069495431BE
:10224000DBF8000008600AF1010A0BF1040B09F148
:10225000040902988245F1D310E04FF0000A06E02D
:102260005BF82A005F49543108600AF1010ABAF1AB
:10227000080FF5D30BF1200B09F120096FF0404452
:1022800004E0FFE70CB9042032E7641E554808302B
:10229000006840F21A6108400028B0D05148083068
:1022A000006800F0080048B14E480C30006840F06B
:1022B00008004C490C310860042019E749480830EF
:1022C000006800F0020050B146480C30006840F051
:1022D000020044490C310860022009E727E0414828
:1022E0000830006800F0100048B13E480C3000682B
:1022F00040F010003B490C3108600520F8E63948F1
:102300000830006800F4007048B136480C300068AE
:1023100040F4007033490C3108600720E8E6FEF70E
:102320006CFD40F2FF502F490C31086041E031480C
:10233000007801283DD100202F4908702C490870F1
:102340002E49087027481030006840F21A310843BF
:10235000244910310860012229460698FEF7D0FE74
:102360002048006840F008001E49086000E0641E34
:102370002348006800F0006008B9002CF7D11CB9B0
:10238000FFF7D4F80420B3E64FF0FF3400E0641EFA
:102390001A48007820B91848007808B9002CF6D1FE
:1023A0000CB90420A4E61448007810B11248007853
:1023B0009EE640F2FF500B490C31086004A8FEF77E
:1023C0001FFD064603E004A8FEF71AFD06463EB9C7
:1023D0009DF810000728F6D09DF810000628F2D0CE
:1023E000304685E62C2C01400C0000201000002017
:1023F0001500002014000020160000201700002007
:10240000006402402DE9FE4F0646894692460020B0
:10241000029000254C462148007818B1680240EA35
:10242000D455640206F00300F0B14FF0000B18E041
:102430004FF4007231461A48FEF74AF84FF4007024
:1024400000904FEA4B20071945EBE0733A461448D9
:10245000FFF736FE029006F500760BF1010000F062
:10246000FF0BD345E4DB16E0BAF1010F09D14FF4BD
:10247000007022462B4600903046FFF721FE029066
:1024800009E04FF4007022462B46CDE9000A3046A1
:1024900000F008F802900298BDE8FE8F0C000020C2
:1024A000E81100202DE9FF5F84B0DDE91247002626
:1024B000002003900290002580468146019007FB92
:1024C00004FBDDF810A0DDF810A0BAF1000F03D175
:1024D000262008B0BDE8F09F0020C949086000230D
:1024E0001A461946401EFEF7EFFDC5481838006829
:1024F00000F0007008B10E20EBE7C2480078022817
:1025000008D10402DDE90601400A40EAC15049123F
:10251000CDE90601002C15DDB4F5006F12DC601E5C
:10252000204078B9204600F0F1FD039022460121B9
:102530001020FEF7B3FD1020FEF7D0F906461EB1BD
:102540003046C6E72620C4E7012F70D907FB04F008
:10255000B0F1007F01D32620BBE7AA48007838B14C
:10256000A8480078012803D0A6480078022819D18D
:10257000A5480088020401213720FEF78FFD37208F
:10258000FEF7ACF906460EB13046A2E73A46012105
:102590001720FEF783FD1720FEF7A0F906460EB1BF
:1025A000304696E701211920069AFEF777FD19209B
:1025B000FEF794F906460EB130468AE707FB04F1B0
:1025C0000023581E039AFEF77FFD904800780028EC
:1025D0006FD1451EFEF70FFC43E0894808300068C4
:1025E00000F48040C0B3ABEB0800202820D2ABEB56
:1025F000080000F0030018B9ABEB0800800803E006
:10260000ABEB08008008401C01904FF000090AE085
:102610007B495431DAF80000086009F101090AF138
:10262000040A08F1040801988145F1D311E0CDE0D6
:102630004FF0000906E05AF829007149543108604A
:1026400009F10109B9F1080FF5D30AF1200A08F1DF
:1026500020086FF0404504E0FFE70DB9042038E79B
:102660006D1E67480830006840F21A3108400028A3
:10267000B3D063480830006800F0080048B16048F3
:102680000C30006840F008005D490C3108600420FF
:102690001FE75B480830006800F0020050B158485E
:1026A0000C30006840F0020055490C3108600220EF
:1026B0000FE744E052480830006800F0100048B1CD
:1026C0004F480C30006840F010004D490C31086054
:1026D0000520FEE64A480830006800F4007048B162
:1026E00047480C30006840F4007045490C310860E0
:1026F0000720EEE642480830006800F48070B0B170
:102700004048007838B13F480078012803D03D4860
:10271000007802280BD1002201210C20FEF7BEFC1C
:102720000C20FEF7DBF806460EB13046D1E6FEF788
:1027300064FB40F2FF5032490C31086046E03348F8
:102740000078012842D10020314908700120314928
:10275000087000203049087029481030006840F2A5
:102760001A31084326491031086007FB04F10122A1
:102770000498FEF7C5FC2248006840F00800204994
:1027800008604FF0FF3500E06D1E2448006800F03F
:10279000006008B9002DF7D11DB9FEF7C7FE04206F
:1027A00097E64FF0FF3500E06D1E1B48007820B91A
:1027B0001748007808B9002DF6D10DB9042088E635
:1027C0001348007810B11248007882E640F2FF50BA
:1027D0000B490C31086002A8FEF712FB064603E025
:1027E00002A8FEF70DFB06463EB99DF80800072833
:1027F000F6D09DF808000628F2D0304669E60000C1
:102800002C2C01400C00002010000020140000209F
:102810001600002015000020170000200064024070
:102820001CB500242748006840F0010025490860D5
:1028300024481430006840F4805022491431086064
:102840000120032100230222CDE9001038211E4877
:10285000FEF75EFA052203211B48FEF7F1F9052277
:1028600004211948FEF7ECF9052211461648FEF737
:10287000E7F914480C38006840F4805011490C39CD
:1028800008600846006820F48050086000BF44F4E7
:10289000007444F4807444F0040400BF44F0020463
:1028A00044F0010444F0380400BF44F040040748F9
:1028B0000480808B20F4006004498883FF2000F0AE
:1028C00007F81CBD303802400004024000300140CF
:1028D000014600BF0948008900F002000028F9D035
:1028E0000648818100BF0548008900F001000028EA
:1028F000F9D002488089C0B2704700000030014022
:1029000000F00700084909884FF6C7721140064ACF
:1029100011801146098841EAC001118011460988D9
:1029200041F0400111807047003001400CB500209B
:10293000019000903448006840F4803032490860CB
:1029400000BF3148006800F4003000900198401C3E
:102950000190009818B90198B0F5A04FF1D12A481C
:10296000006800F4003010B10120009001E0002068
:1029700000900098012846D123484030006840F07C
:1029800080502149403108602048006840F44040B0
:102990001E4908601C48083000681B49083108605F
:1029A0000846006840F4004008600846006840F4AB
:1029B000A05008601648091F0860081F006840F012
:1029C0008070091F086000BF0F48006800F00070A9
:1029D0000028F9D040F205700E4908600A48083016
:1029E000006820F0030008490831086008460068C4
:1029F00040F00200086000BF03480830006800F0A3
:102A00000C000828F8D10CBD0038024000700040CE
:102A100019544007003C0240F0B504460D461646E6
:102A20001F461448006840F0010012490860002069
:102A30001049083108600F4800680F4908400D49E7
:102A400008600E48091D0860081F006820F48020F7
:102A5000091F0860002007490C3108603B463246D8
:102A60002946204600F026F800210846FEF7ACFA79
:102A7000F0BD000000380240FFFFF6FE10300024D9
:102A800010B500BF502080F31188BFF34F8FBFF304
:102A90006F8F00BF03F0C6FB18B14FF080500449A0
:102AA000086000BF002080F3118800BF10BD000047
:102AB00004ED00E0F0B504460D46002100203D4E37
:102AC000366846F480363B4F3E6001E04E1CB1B2A2
:102AD000384E366806F400361EB941F6FF76B1422C
:102AE000F4DB41F6FF76B14201D1012060E0314EC6
:102AF0004036366846F080562E4F40373E602E4EA8
:102B0000366846F440462C4F3E602A4E08363668FA
:102B100046F41446274F08373E60264E366826F0A6
:102B20008076244F3E6045EA84160127C7EB5207A2
:102B300046EA074646EA036646F480061D4F3F1DF7
:102B40003E603E1F366846F080763F1F3E6000BF05
:102B5000184E366806F00076002EF9D0174E36680B
:102B600046F48076154F3E603E46366846F4007661
:102B70003E603E46366846F480663E603E463668B5
:102B800046F005063E600B4E0836366826F0030612
:102B9000084F08373E603E46366846F002063E6003
:102BA00000BF044E0836366806F00C06082EF8D131
:102BB000F0BD00000038024000700040003C0240C0
:102BC00010B51548006840F47000134908601348B8
:102BD000006840F001001149086000200F490831E9
:102BE00008600E4800680E4908400C4908600D480E
:102BF000091D0860081F006820F48020091F086074
:102C0000002006490C310860FFF790FE4FF000608D
:102C100001498039086010BD88ED00E000380240AD
:102C2000FFFFF6FE103000241C49098801F0200146
:102C300009B31A498988C8B21949098801F40041C1
:102C4000C9B91749098801F4804161B10A2803D044
:102C50000021134A118020E01149098841F4004104
:102C60000F4A118019E00D2806D10D49098841F459
:102C700080410B4A118010E009490988C1F30D0118
:102C8000084A505406490988491C054A11801146D2
:102C90000988C72901DD002111807047001001401B
:102CA00008000020A400002000BFFEE710B5044685
:102CB000240300F027F900F0BFF800200B4908605A
:102CC0002020FFF705FEC4F30740FFF701FEC4F321
:102CD0000720FFF7FDFDE0B2FFF7FAFD01200449F0
:102CE000C1F8B80200F0A8F810BD0000B882404258
:102CF000008040421CB51A48006840F002001849A4
:102D000008600846006840F0400008600120032188
:102D100000230246CDE9001081031248FDF7F8FFB9
:102D20000120032100230246CDE9001080210E4836
:102D3000FDF7EEFF0C481430006840F080000A49AF
:102D400014310860012009490860FFF769FD01207E
:102D5000FFF7D6FD00F036F8054908801CBD0000DD
:102D6000303802400004024000180240B88240425D
:102D70000A0000202DE9F04106460C4617460020C7
:102D80000F4908600320FFF7A3FDC4F30740FFF7D6
:102D90009FFDC4F30720FFF79BFDE0B2FFF798FD0E
:102DA000002505E0FF20FFF793FD7055681C85B2F4
:102DB000BD42F7DB012002490860BDE8F081000058
:102DC000B882404210B5002400200E4908609020CF
:102DD000FFF77EFD0020FFF77BFD0020FFF778FD69
:102DE0000020FFF775FDFF20FFF772FD44EA002485
:102DF000FF20FFF76DFD044301200349C1F8B8022D
:102E0000204610BDB88240420080404210B50024E8
:102E10000020074908600520FFF75AFDFF20FFF753
:102E200057FD044601200349C1F8B802204610BDF1
:102E3000B88240420080404210B500BFFFF7E6FF75
:102E400000F001000028F9D110BD00002DE9F05F6D
:102E500081460F461646DFF8A8B04FEA1738C7F389
:102E60000B0ACAF58054A64200DC344644E04FEA1F
:102E700008314FF480525846FFF77CFF002508E0E8
:102E80000AEB05001BF80000FF2800D003E0681CD7
:102E900085B2A542F4DB00BFA54216DA4046FFF733
:102EA00005FF002507E019F8050005EB0A010BF8FE
:102EB0000100681C85B2A542F5DB4FEA08314FF4EA
:102EC0008052584600F02EF804E022463946484623
:102ED00000F028F8A64200D10FE008F101084FF0F9
:102EE000000AA1442744301B86B2B6F5805F02DD9C
:102EF0004FF4805400E03446B9E700BFBDE8F09FCE
:102F00006C01002010B50020044908600620FFF77E
:102F1000DFFC01200249C1F8B80210BDB88240426E
:102F2000008040422DE9F04107460E461446F0B2BB
:102F3000C0F58075AC4200DC254612E02A463146D9
:102F4000384600F013F8AC4200D10BE02F442E4479
:102F5000601B84B2B4F5807F02DD4FF4807500E021
:102F60002546EBE700BFBDE8F08100002DE9F04108
:102F700006460C461746FFF7C5FF00200F490860BC
:102F80000220FFF7A5FCC4F30740FFF7A1FCC4F340
:102F90000720FFF79DFCE0B2FFF79AFC002504E054
:102FA000705DFFF795FC681C85B2BD42F8DB01201F
:102FB00002490860FFF740FFBDE8F081B882404257
:102FC00000BF704770B504460D460020E070401EFB
:102FD00060632946204602F067FC08B1042070BDFA
:102FE00004F2362002F04DF94AF65521884201D00C
:102FF0000320F4E700BF94F83800E92807D094F8DC
:103000003800EB2803D094F83800E82811D10322C7
:1030100009A104F16E0002F0A1FA08B90020DEE770
:10302000052206A104F18A0002F098FA08B90020EE
:10303000D5E70220D3E7000046415400464154330F
:1030400032000000024600E0521C107810B11078E7
:103050008842F9D1107870470246891ED069801ED7
:10306000884201D8002070475389106B03FB010090
:10307000F9E700002DE9F04780460C4604F11A00FC
:1030800002F0FFF810B10020BDE8F087207800F0D2
:103090003F00401E00EB800101EBC0054FF001092D
:1030A000002621E01849895D081902F0EAF8074670
:1030B000B9F1000F11D0FF2D0BD8384601F0A4FE56
:1030C000824629466D1C38F8110001F09DFE8245AC
:1030D00001D00020D8E7B94605E04FF6FF708742DF
:1030E00001D00020D0E7761C0D2EDBD3207800F035
:1030F000400038B1B9F1000F04D038F8150008B11C
:103100000020C1E70120BFE77C64000801460020E1
:1031100002E04910421CD0B20129FAD170472DE9D2
:10312000F04782468846DAF80040B8F1000F06D131
:10313000676917B1E069B84215D8012713E0414625
:10314000504601F0BDFF0546022D02D20120BDE828
:10315000F087681C08B92846F9E7E069A84201D958
:103160002846F4E74746A06908B90020EFE70026A3
:10317000474518D17E1CE069B04200D8022631468E
:10318000504601F09DFF0546012D01D0681C08B98D
:103190002846DCE73DB16569022D03D3E069A8420A
:1031A00000D92F460026E6B93E4600BF761CE069EE
:1031B000B04204D80226BE4201D90020C7E73146FA
:1031C000504601F07DFF054605B909E0012D01D00B
:1031D000681C08B92846BAE7BE42E7D10020B6E726
:1031E00000BF4FF0FF323146204602F003FC81461B
:1031F000B9F1000F08D1B8F1000F05D032464146B1
:10320000204602F0F7FB8146B9F1000F0DD166614F
:10321000D4E90610801E814202D8A069401EA06138
:10322000207940F00100207107E0B9F1010F02D1CF
:103230004FF0FF3000E001200646304687E70000EF
:103240002DE9F34F85B08146069800680290D9F8C1
:103250000000D0F810A0002500BF02A802F067FE11
:1032600083460BF1010018B9062007B0BDE8F08FC6
:10327000BBF5803F05D34FEA1B4228466D1C2AF858
:1032800010201FFA8BF4202C03DB2F2C01D05C2C98
:1032900000D111E0802C06DA214679A0FFF7D2FE9A
:1032A00008B10620E1E7FF2D01D30620DDE728461F
:1032B0006D1C2AF81040D0E700BF202C01DA04264C
:1032C0000CE0002602E00298401C02900298007870
:1032D0002F28F8D0029800785C28F4D0029906983C
:1032E000016008E0681E3AF81040202C02D02E2C15
:1032F00000D002E06D1E002DF4D100BF00202AF89E
:1033000015000DB90620B0E7002700E07F1C3AF851
:1033100017002028FAD01FB93AF817002E2801D13B
:1033200046F0030600E06D1E25B1681E3AF8100055
:103330002E28F8D10B22202109F1200002F02DF9CE
:103340004FF00008CDF810800820039000BF3846E9
:103350007F1C3AF8104004B966E0202C03D02E2CD4
:1033600004D1AF4202D046F00306F0E7DDE90310D6
:10337000884201D2AF4216D103980B2802D146F001
:10338000030651E0AF4201D046F00306AF4200D938
:103390004AE02F46082004900B2003904FEA8860F3
:1033A0004FEA1068D3E7802C0ADB46F0020620467D
:1033B00001F02AFD4FF46A71019001F0EBFC044624
:1033C000FF2C11DD0398401E0499884204D846F072
:1033D000030603980490BAE722120498411C049152
:1033E00009F120010A5418E024B1214627A0FFF773
:1033F00029FE18B15F2446F003060EE0412C03DBE2
:103400005A2C01DC48F00208612C06DB7A2C04DC23
:1034100048F00108A4F1200084B20498411C0491F2
:1034200009F120010C5492E700BF99F82000E5282B
:1034300002D1052089F820000398082803D14FEA1B
:1034400088604FEA106808F00C000C2803D008F0E0
:103450000300032801D146F0020606F0020048B935
:1034600008F0010008B146F0100608F0040008B1A9
:1034700046F008062B2000F809600020F5E6000061
:10348000222A3A3C3E3F7C7F000000002B2C3B3D33
:103490005B5D00002DE9FF4F85B09A4603AA01212C
:1034A000059800F093FB18B1012009B0BDE8F08F3A
:1034B000DDF80C904FF03F08082701E07806070E72
:1034C00037B1B9FBF7F0B0FBF8F0B0F5806FF5D885
:1034D00007B9FF274FF480520021504602F05DF8F3
:1034E0000AF5DF764FF0000B444669E0069850F885
:1034F0002B50642D07D801D1484603E06420B9FB66
:10350000F0F0684305466019484501D8601901D3B9
:10351000A9EB040505B959E0214606F1080002F0BF
:1035200076FC294606F10C0002F071FC0798307118
:10353000B4FBF8F0B0FBF7F00490B4FBF8F0B0FB8C
:10354000F7F107FB1100C0B20290B4FBF8F008FBE2
:103550001040401CC0B2019002987070C0210498C5
:1035600001EA900001990843B0700498F070601966
:10357000401EB0FBF8F0B0FBF7F004906019401E5D
:10358000B0FBF8F0B0FBF7F107FB1100C0B20290FE
:103590006019401EB0FBF8F108FB1100401CC0B2DE
:1035A000019002987071C021049801EA900001997D
:1035B0000843B0710498F07110360BF1010B2C44E4
:1035C000BBF1040F02D20CB14C458FD300BF4AF6B9
:1035D00055210AF5FF7002F026FC01230022514616
:1035E000059800F080FB08B101205EE700205CE751
:1035F00001460B48007888420FDC09484078884231
:1036000001DB0120704706488078884205DC0448C9
:10361000C078884201DB0120F4E70020F2E70000D7
:1036200089640008014610480079884219DC0E4878
:103630004079884201DB012070470B48807988423D
:1036400005DC0948C079884201DB0120F4E706481F
:10365000007A884205DC0448407A884201DB012078
:10366000EAE70020E8E70000896400084FF0E02165
:10367000096921F004014FF0E0221161C21700EB4B
:103680005272C2F3C702074B1A701946097801EB50
:103690004102C2EBC1114FF6FF7202EAC101024AB8
:1036A00011807047000000200200002070B5044621
:1036B0004FF4077094FBF0F0C6B24FF4077094FB20
:1036C000F0F100FB114085B205E04FF4077000F007
:1036D00009F8701EC6B2002EF7D115B1284600F0C9
:1036E00001F870BD01460D4A12884A434FF0E023AD
:1036F0005A6100229A6101221A6100BF4FF0E02254
:10370000106900F001021AB100F48032002AF5D0ED
:1037100000224FF0E0231A619A61704702000020F6
:103720002DE9F04104460E46D4F8008000212046E1
:1037300000F0E2F90546EDB9002700BF4046A16957
:1037400002F0B2F8054605B113E0E0690078E5281B
:1037500002D0E069007820B9781C0746B04201D158
:1037600007E000270121204600F0B8F80546002DAB
:10377000E4D000BF042D00D107252846BDE8F08124
:103780002DE9F04704468946204602F0ABFB10B114
:103790000120BDE8F08749462046FFF75DFC06465C
:1037A00066634FF48052002104F1380001F0F5FE09
:1037B00004F138080127002500E03D446089A84253
:1037C00007D9721960783B46414600F08CFA002810
:1037D000F3D06089A84201D00120DAE70020D8E7C1
:1037E0002DE9F0470446D4F800A00021204600F05F
:1037F00083F9064616B13046BDE8F0874FF0FF0862
:10380000C1464FF0FF30E06200BF5046A16902F0B0
:103810004BF8064606B15EE0E06905780DB904266E
:1038200059E0E069C07A00F03F07A771E52D04D0A8
:1038300007F0080038B10F2F05D04FF0FF084FF008
:10384000FF30E06240E00F2F22D12B20005D00F01E
:10385000400098BB05F0400038B1E06990F80D9049
:1038600005F0BF05A8462069E06245450CD1E06936
:10387000407B484508D1E169DAF81000FFF7FAFB10
:1038800010B1A8F1010000E0FF2000F0FF081BE0EC
:10389000B8F1000F05D1E06902F0CBFA484500D13C
:1038A00019E02B20005D00F0010040B90B2204F16B
:1038B0002001E06901F052FE08B90CE004E04FF08D
:1038C000FF084FF0FF30E0620021204600F006F8CC
:1038D0000646002E99D000BF30468DE72DE9F04115
:1038E000044688462668206900F12007B7F5001FC6
:1038F00001D30020A061A06910B90420BDE8F081C7
:10390000B089B7FBF0F100FB1170002847D1A06926
:10391000401CA061606938B93089B0EB571F3ED8B0
:103920000020A0610420E9E7B089B7FBF0F07189BD
:10393000491E084098BB2046616901F0C1FB05465D
:10394000012D01D80220D9E7681C08B90120D5E76C
:10395000F069A8421DD8B8F1000F03D10020A06182
:103960000420CBE720466169FFF7D9FB05460DB976
:103970000720C3E7012D01D10220BFE7681C08B969
:103980000120BBE729463046FFF7FAFE08B10120C7
:10399000B4E7656129463046FFF75EFBA061276109
:1039A000B089B7FBF0F100FB117106F13800084453
:1039B000E0610020A2E72DE9FE4F044626682B2097
:1039C000005D00F0A00010B10620BDE8FE8F4FF0B2
:1039D000000901E009F10109306930F819000028F7
:1039E000F8D10C2204F12001684601F0C9FD9DF8D0
:1039F0000B0000F0010028B340212B2001554FF0AF
:103A000001080EE04346694604F12000326901F0E6
:103A1000F1FA2046FFF7E4FE054605B104E008F19F
:103A20000108B8F1640FEDD300BFB8F1640F01D104
:103A30000720CAE7042D01D02846C6E79DF80B10E1
:103A40002B2001559DF80B0000F0020030B109F168
:103A50000C000D21B0FBF1F0401C00E001200746F6
:103A600039462046FFF75CFE05464DBB781E071E13
:103A700026D02069A0EB4711204600F03DF805460E
:103A8000F5B904F1200002F0D4F9824600BF3046B7
:103A9000A16901F009FF054605B110E0FAB2E1693C
:103AA0005346306902F06EF80120F0700021204684
:103AB000FFF714FF054615B9781E071EE7D100BFB2
:103AC000C5B93046A16901F0EFFE054695B920223F
:103AD0000021E06901F061FD0B2204F12001E069A1
:103AE00001F04EFD2B20005D00F01800E169087325
:103AF0000120F070284668E72DE9F04104460E46A3
:103B00002568B6F5001F02D206F01F0010B1022092
:103B1000BDE8F0812661A7681FB92878032800DB7B
:103B2000EF6A47B92889B0EB561F01D80220EFE7AA
:103B3000E86AA0611DE06889A98900FB01F811E02D
:103B40003946204601F0BCFA0746781C08B9012026
:103B5000DEE7022F02D3E869B84201D80220D7E796
:103B6000A6EB08064645EBD239462846FFF774FA1D
:103B7000A0616761A06908B90220C9E7A889B6FBFE
:103B8000F0F0A1690844A061A889B6FBF0F100FB40
:103B9000116105F138000844E0610020B8E770B514
:103BA000054615B1012D0ED107E0FDF7BFFC08B9A0
:103BB000002400E00124204670BDFFF79BF801209F
:103BC00000F076F8F8E70120F6E700002DE9F0476D
:103BD00081460D461446B9F1000F03D0B9F1010F2B
:103BE00035D11EE0012D04D0022D0DD0032D13D1AF
:103BF0000EE018484FF400720023D0E912713846E5
:103C0000FCF79BFB206007E04FF40070208003E08E
:103C10001048006D206000BF00BF00263046BDE8A0
:103C2000F087012D04D0022D06D0032D0BD107E023
:103C30004FF08070206006E04FF48050208002E05A
:103C40000120208000BF00BF00263046E7E70420A7
:103C5000E5E70000901100202DE9F04706460F46E9
:103C600015461C464FF004084FF0000916B1012E0E
:103C70001AD10EE0E2B229463846FEF739F88146FD
:103C8000B9F1000F02D14FF0000801E04FF0010838
:103C90000AE04FF6FF7000EA043229033846FFF7C6
:103CA00069F84FF0000800BF00BF4046BDE8F0874C
:103CB00070B5054615B1012D12D107E0FDF728FCBE
:103CC000FF2801D1012400E0002409E0FFF77AF881
:103CD0004EF61771884201D0012400E0002400BF95
:103CE00000BF204670BD2DE9F041074688461546C5
:103CF0001C4617B1012F14D108E0E2B22946404614
:103D0000FEF780FB00263046BDE8F0814FF6FF70DD
:103D100000EA043229034046FFF798F800263046AF
:103D2000F2E70420F0E7000010B500240DE041F2B6
:103D3000380001F067FF174941F82400084650F8A1
:103D4000240000B903E0601CC4B2022CEFDB00BF0A
:103D500041F2280001F056FF0F49086041F22800A7
:103D600001F050FF0D4908604FF4007001F04AFF68
:103D70000B490860022C0AD10748006838B107488F
:103D8000006820B10846006808B1002010BD01207D
:103D9000FCE700001C000020240000202800002078
:103DA0002C00002038B50546284600F064FE044685
:103DB0003CB96946284602F017FA04460CB90020BF
:103DC0002860204638BD2DE9F84F04460E46694666
:103DD000204602F009FA8246BAF1000F01D194F8A8
:103DE00011A0BAF1000F02D05046BDE8F88FE0688C
:103DF000B04204D2207C00F0020000B9E668D4F89A
:103E000014904FF00008C4F81480002E72D000986F
:103E100040890099898900FB01F7B9F1000F11D0A1
:103E2000701EB0FBF7F1A9F10100B0FBF7F0814281
:103E300008D3A9F10100791E884360616069361AD0
:103E4000A56912E0A5687DB900212046FFF767F952
:103E50000546012D02D102206074C6E7681C10B926
:103E600001206074C1E7A560A561002D42D024E067
:103E7000F61B606938446061207C00F0020040B1AC
:103E800000BF29462046FFF74AF9054635B9002606
:103E900015E02946204601F013F90546681C10B9C3
:103EA00001206074A1E7012D03D90098C069A842E0
:103EB00002D80220607498E7A561BE42D8D800BF3E
:103EC00060693044606100988089B6FBF0F100FBC6
:103ED000116078B129460098FFF7BEF88046B8F126
:103EE000000F02D1022060747FE700988089B6FB42
:103EF000F0F08044E1686069884205D96069E0605B
:103F0000207C40F040002074606900998989B0FBF2
:103F1000F1F201FB120020B3E069404521D0207C82
:103F200000F0800078B1E26900994878012304F13B
:103F30002801FFF7D8FE10B10120607455E7207CFE
:103F400000F07F002074009948780123424604F174
:103F50002801FFF781FE10B10120607445E7C4F825
:103F60001C80504641E700002DE9FF4F99B00E46F6
:103F700019A801F040F904900498002803DA0B20F6
:103F80001DB0BDE8F08FFC49049851F8200028B11D
:103F90000021F94A049852F8200001700498C0B238
:103FA00016900020159006B9F44E1698FFF7F7FD0D
:103FB0000390039800F0010008B10320E0E70398A4
:103FC00000F0040008B10A20DAE770681290129835
:103FD00038B912AA03211698FFF7F8FD08B101209D
:103FE0001290129840B11298B0F5004F04D8129870
:103FF000401E1299084008B10120129014AA022113
:104000001698FFF7E3FD08B10120B9E7BDF85000AD
:10401000B0F5805F0BDCBDF85000B0F5007F06DB2B
:10402000BDF85000401EBDF85010084008B10120F6
:10403000A6E7307800F00F0018907078012804DBB4
:104040007078022801DC707800E001200690B168E9
:1040500089B1B168B1F5004F0DD8BDF85000C11756
:1040600000EBD1614911B268B2FBF1F301FB1321FE
:1040700009B9B16801E04FF400710591F068B0F141
:10408000807F05D8F068411E084008B9F06800E05C
:1040900000200790BDF850100798B0FBF1F0079092
:1040A000BDF850101C98B0FBF1F01390139808B9AC
:1040B000112065E71B9C0CB9112061E74FF0000A45
:1040C000CDF840A000BF10AA01211698FFF77EFD91
:1040D00008B1012054E7189800F0080040B9109882
:1040E0003F2805D94FF03F0A1098A0EB0A00109026
:1040F0001098802801D20E2042E700BF00BF079829
:10410000802801D980200790189800F0020028B17B
:10411000189800F0010008B9032707E0189800F08C
:10412000010008B913202BE7022700BF00BF00BF22
:10413000079D032F2DD195B910984FEA50494FF0A4
:10414000000B012502E00BF1010B6D008C4830F8EB
:104150001B0020B18A4830F81B004845F3D910985D
:10416000B0FBF5F8082000EB8800BDF850100844BB
:10417000401EB0FBF1F0099020200A90002008902A
:104180004FF6F570804502D97E48804539D90E201A
:10419000F6E695B910984FEA10394FF0000B01255B
:1041A00002E00BF1010B6D00774830F81B0020B1E5
:1041B000754830F81B004845F3D91098B0FBF5F866
:1041C00040F6F570804503D9042000EB480906E06D
:1041D000012708EB4800401C032101EB5009BDF802
:1041E00050004844401EBDF85010B0FBF1F009905B
:1041F00001200A9005984001BDF85010B0FBF1F085
:1042000008900A9850440F90069A09990F9801FB5C
:104210000201089808440E9012990E980844401E16
:10422000491E20EA01010E98A1EB0009032F06D1D7
:104230000A9848440A900F9848440F9013E0069853
:10424000B9FBF0F100FB119038B1A9F101090A980E
:10425000401C0A900F98401C0F900698B9FBF0F193
:104260000998084409900E9800EB0510A0EB0A008D
:104270001099884201D90E2082E610990A980A1AEC
:104280000699099800FB11210898081AB0FBF5F867
:10429000032F0BD14FF6F570804507D8079818B952
:1042A0006808079000B135E00E2069E6022F28D19A
:1042B0004FF6F570804517D9079830B94020B0EB1C
:1042C000450F02D36800079024E0189800F0020020
:1042D00008B103271EE0079820B9680007908028DE
:1042E00000D817E00E204BE640F6F570804508D860
:1042F000079820B968000790802800D80AE00E20AF
:104300003EE6012F05D140F6F570804501D90E201B
:1043100036E600E00CE700BFBDF850200021204643
:1043200001F03BF90B2219A1204601F029F9BDF853
:10433000501004F10B0001F076FD65730A9881B20C
:1043400004F10E0001F06FFD06982074032F01D1D7
:10435000002000E0059881B204F1110001F063FD36
:104360001098B0F5803F17D2109881B204F1130075
:1043700001F059FD15E0000030000020B064000895
:10438000A2640008F5FFFF0F94640008EBFE904D57
:1043900053444F53352E300004F12000109901F0A2
:1043A00036FDF82060753F2104F1180001F03BFD57
:1043B000FF2104F11A0001F036FD514604F11C0002
:1043C00001F025FD032F28D100F013FF01460190D5
:1043D00004F1430001F01BFD04F12400099901F0F0
:1043E00016FD022104F12C0001F011FD012104F160
:1043F000300001F018FD062104F1320001F013FD38
:10440000802084F84000292084F84200132286A1ED
:1044100004F1470001F0B4F819E000F0EAFE0146AB
:10442000019004F1270001F0F2FC099881B204F137
:10443000160001F0F8FC802084F82400292084F87C
:10444000260013227DA104F12B0001F099F84AF611
:10445000552104F5FF7001F0E6FC01235246214688
:104460001698FFF740FC08B1012089E5032F34D1ED
:1044700001230AF1060221461698FFF734FCBDF825
:1044800050200021204601F088F87149204601F0B3
:10449000BEFC704904F5F27001F0B9FCA8F101010D
:1044A00004F5F47001F0B3FC022104F5F67001F09C
:1044B000AEFC4AF6552104F5FF7001F0B4FC01236F
:1044C0000AF1070221461698FFF70DFC01230AF1B5
:1044D000010221461698FFF706FCBDF8501013980C
:1044E00000FB01F20021204601F057F80F980D90D3
:1044F0004FF0000B41E0032F0FD16FF00701204672
:1045000001F085FC391F201D01F081FC6FF0704126
:1045100004F1080001F07BFC09E0012F01D14E48B5
:1045200001E06FF007000146204601F070FC099899
:10453000119000BF13991198884201D9139800E097
:10454000119881464B4621460D9A1698FFF7CBFBF2
:1045500008B1012014E5BDF850200021204601F0EB
:104560001CF80D9848440D901198A0EB090011908B
:1045700011980028DED10BF1010B06988345BAD3C0
:10458000032F01D1284600E00898119000BF13992D
:104590001198884201D9139800E0119881464B4642
:1045A00021460D9A1698FFF79EFB08B10120E7E41B
:1045B0000D9848440D901198A0EB090011901198A6
:1045C0000028E4D100BF032F02D10C2017900CE08B
:1045D0001098B0F5803F02D30620179005E0022F17
:1045E00001D1042000E00120179000BF189800F0CE
:1045F000080070B910980B9000200C9023460BA96E
:10460000DDE91602FEF746FF0290029808B1029813
:10461000B6E4002211461698FFF7D8FA08B1012037
:10462000AEE40020ACE400004E4F204E414D45204A
:104630002020204641543332202020004E4F204E6F
:10464000414D45202020204641542020202020009C
:104650005252614172724161F8FFFF00F7B582B0BA
:1046600016460398019001A800F0C5FD0546002DEF
:1046700002DA0B2005B0F0BD0C4850F825400CB113
:1046800000202070029810B100200299087007499C
:10469000029841F825000EB90020EBE7002202A99C
:1046A00003A800F083FF07463846E3E73000002008
:1046B0002DE9F74F8EB0044616461CB9092011B0FB
:1046C000BDE8F08F06F03F06324601A90FA800F0C2
:1046D0006DFF0546002D7DD10198029002A80F992B
:1046E00000F026FC05462DB99DF8330000F080004F
:1046F00000B1062506F01C00002850D045B1042D5D
:1047000003D102A8FFF757F9054646F008060AE06C
:104710009DF80E0000F0110008B1072503E006F037
:10472000040000B10825002D4AD106F00800002839
:1047300046D00999019800F085FD814600F059FDA9
:104740000090099901F10E00009901F060FB202012
:104750000999C87200220999019801F046FB09994C
:1047600001F11C00002101F052FB01200199C870E9
:10477000B9F1000F24D00198D0F834A000224946A6
:1047800002A801F0E5FA0546D5B95146019801F0B5
:104790008BF80546A9F101000199486110E07DB947
:1047A0009DF80E0000F0100008B1042508E006F0A6
:1047B000020028B19DF80E0000F0010000B10725AD
:1047C0005DB906F0080008B146F040060198406B5C
:1047D000206200E052E009986062002D5FD10999E3
:1047E000019800F02FFDA060099901F11C0000F074
:1047F0003CFDE060019820600198C088A08026748C
:1048000000206074E06160614FF48052002104F187
:10481000280000F0C2FE06F0200078B3E06868B31C
:10482000E0686061019840890199898900FB01FB7A
:10483000A768D4F80C800CE03946204600F040FC14
:104840000746012F00D80225781C00B90125A8EBE6
:104850000B080DB9D845EFD8A7617DB901988089BB
:10486000B8FBF0F100FB118040B139460198FEF72A
:10487000F3FB8246BAF1000F01D102250FE0019847
:104880008089B8FBF0F05044E061E2690199487812
:10489000012304F12801FFF7DFF900B101250DB173
:1048A0000020206028460AE72DE9FF4F85B0044626
:1048B00015469A46DDF818B00020CAF8000003A992
:1048C000204601F091FC0490049810B9607C04909B
:1048D00018B1049809B0BDE8F08F207C00F0010009
:1048E00008B90720F6E76169E068401A019001986D
:1048F000854200D9019DB9E0606903998989B0FBBF
:10490000F1F201FB1200002876D1606903998989D0
:10491000B0FBF1F003994989491E00EA0109B9F198
:10492000000F17D1606910B9A068029004E020461A
:10493000A16900F0C5FB02900298022802D2022071
:104940006074C7E70298401C10B901206074C1E789
:104950000298A061A1690398FEF77EFB064616B98E
:1049600002206074B6E74E4403988089B5FBF0F8E6
:10497000B8F1000F2DD009EB08000399498988424E
:1049800003D903984089A0EB090803994878434666
:1049900032465946FFF760F910B10120607499E77B
:1049A000207C00F0800078B1E069801B40450BD28C
:1049B000E169891B039B9B8901FB03B003998A89E9
:1049C00004F1280100F0DCFD0398808900FB08F762
:1049D00042E0E069B04220D0207C00F0800080B14D
:1049E000E26903994878012304F12801FFF77BF974
:1049F00018B1012060746DE710E0207C00F07F00AA
:104A00002074039948780123324604F12801FFF706
:104A100023F910B1012060745CE7E66160690399D5
:104A20008989B0FBF1F201FB1200039989890F1A01
:104A3000AF4200D92F46606903998989B0FBF1F232
:104A400001FB120104F1280008443A460146009097
:104A5000584600F095FD00BFED1BDAF80000384421
:104A6000CAF80000BB44606938446061002D7FF4DF
:104A700043AF00202EE7F8B504466946204601F012
:104A8000B3FB0646002E44D1207C00F040000028F5
:104A90003FD0207C00F0800070B1E2690099487836
:104AA000012304F12801FFF71EF908B10120F8BD28
:104AB000207C00F07F00207400F09BFB0746216AF9
:104AC000009800F0F1FE06461EBB656AE87A40F0E9
:104AD0002000E8722946A268206801F086F905F1F5
:104AE0001C00E16801F093F9394605F1160001F068
:104AF0008EF9002105F1120001F095F901200099CD
:104B0000C870009801F0A6F90646207C00F0BF00AE
:104B100020743046CBE72DE9FF4F85B0044615469B
:104B20009B46069802900020CBF8000003A920467F
:104B300001F05AFB0490049810B9607C049018B1FD
:104B4000049809B0BDE8F08F207C00F0020008B99D
:104B50000720F6E700BF606928446169884202D2F5
:104B60006069C0F1FF35D6E0606903998989B0FBBF
:104B7000F1F201FB120000287DD160690399898957
:104B8000B0FBF1F003994989491E00EA010ABAF124
:104B9000000F1ED1606938B9A76857B900212046B7
:104BA000FEF7BDFA074604E02046A169FEF7B7FA12
:104BB000074607B9B2E0012F02D102206074C0E7B6
:104BC000781C10B901206074BBE7A761A06800B928
:104BD000A760207C00F0800078B1E26903994878F2
:104BE000012304F12801FFF77EF810B10120607461
:104BF000A7E7207C00F07F002074A1690398FEF7EE
:104C00002BFA064616B9022060749AE756440398B8
:104C10008089B5FBF0F9B9F1000F31D00AEB09003A
:104C200003994989884203D903984089A0EB0A096E
:104C3000039948784B4632460299FFF754F810B171
:104C4000012060747DE7E069801B484511D2E0696E
:104C5000831B0398B0F80CC0029803FB0C01039867
:104C6000828904F1280000F08BFC207C00F07F009A
:104C70002074039800E017E0808900FB09F835E014
:104C8000E069B0420FD0E168606988420BD20399B5
:104C900048780123324604F12801FEF7DDFF10B108
:104CA000012060744DE7E661606903998989B0FB72
:104CB000F1F201FB120003998989A1EB0008A845D4
:104CC00000D9A846606903998989B0FBF1F201FB1C
:104CD000120104F12800084442460190029900F0B4
:104CE0004FFC207C40F08000207400BFA5EB08053D
:104CF000DBF800004044CBF80000029840440290EA
:104D0000606940446061E1686069884201D9606916
:104D100000E0E068E060002D7FF426AF00BF207C5B
:104D200040F04000207400200BE70000F0B5024680
:104D30000E4600200021802A01DA104627E0B6F551
:104D40006A7F24D1124B45F220570025102414E02D
:104D5000A7EB050C05EB5C014FEA410C33F81CC0D6
:104D6000944500D10BE04FEA410C33F81CC0944548
:104D700001DA0D4600E00F46641E002CE8D100BFAA
:104D80002CB14FF0010C0CEB410C33F81C00F0BDC2
:104D900044B901082DE9F04102460F4600200021E8
:104DA000802A01D290B22BE0B2F5803F28D2B7F52D
:104DB0006A7F25D195B2134B45F2205C0026102462
:104DC00014E0ACEB060806EB58014FEA410833F853
:104DD0001880A84500D10BE04FEA410833F818804D
:104DE000A84501DA0E4600E08C46641E002CE8D18E
:104DF00000BF2CB14FF0010808EB410833F8180050
:104E0000BDE8F081C064000870B5B0F5803F4DD2B8
:104E100081B2B1F5805F01DA254E00E0254E3246C1
:104E200000BF32F8023B0BB1994200DA3CE032F8A5
:104E3000024B2512E4B21E198E4230DD092D2CD210
:104E4000DFE805F005090F13171B1F232700CE1AF3
:104E500032F8161021E0CE1A06F001068E1BB1B210
:104E60001BE0A1F11006B1B217E0A1F12006B1B22A
:104E700013E0A1F13006B1B20FE0A1F11A06B1B210
:104E80000BE001F10806B1B207E0A1F15006B1B2A2
:104E900003E0A1F5E356B1B200BF00BF04E0002D6E
:104EA000BFD102EB4402BCE700BF084670BD000062
:104EB000C80D0308BA0F03082DE9FF4107460D4648
:104EC00000213846FEF77EF80646022E06D0032E55
:104ED00000D21DB9304604B0BDE8F08100BF002407
:104EE0000AE007F5FB7101EB041101F1080000F085
:104EF000BCF94DF82400641C042CF2D30DB1681EDB
:104F000000E00020044600BF5DF8240028B15DF8F1
:104F100024103846FEF756F800E0032006462DB967
:104F2000022E03D3601C04460428EDD33046D2E79A
:104F30002DE9F3410446276802E00198401C0190E6
:104F4000019800782F28F8D0019800785C28F4D0D8
:104F50000020A06001980078202808D280212B2012
:104F6000015500212046FEF7C7FD054631E000BF90
:104F700001A92046FEF764F9054605B128E0204660
:104F8000FEF72EFC05462B20065D3DB1042D04D115
:104F900000BF06F0040000B9052519E006F0040082
:104FA00000B115E0A07900F0100008B905250FE068
:104FB000B9892069B0FBF1F201FB120107F1380059
:104FC00001EB00084146384600F03CF9A060CFE70D
:104FD00000BF2846BDE8FC8100BF054A128802F0E8
:104FE0004002002AF9D0C2B2014B9A8070470000FB
:104FF000001001402DE9FF4F83B0804691461E46C8
:105000000B224046049900F0BBFA052E18D937460A
:1050100011E039F802BB00250BE0584667F35F004A
:1050200007464FEA6B0B07F4803008B1234847402E
:105030006D1C102DF1D3B9F800000028E9D13E46CF
:10504000072500BF06F00F0000F1300ABAF1390F52
:1050500003DD0AF1070000F0FF0A28466D1E01A9D2
:1050600001F800A03609002EECD17E20485500241E
:105070000AE018F80400FEF7BBFA20B1681EA0424F
:1050800000D107E0641C641CAC4203D218F8040091
:105090002028EED100BF00BF082D04D228466D1C89
:1050A00001A9085C00E020202146641C08F80100EA
:1050B000082CF1D307B0BDE8F08F000021100100EB
:1050C0002DE9F05F81460D46D9F80040022D02D34C
:1050D000E069A84202D84FF0010887E04FF0FF389E
:1050E0002078012804D002283AD003287AD156E04B
:1050F0002E4606EB5606A089B6FBF0F0A16A00EB3F
:10510000010A5146204600F0CFFB00B16DE0304669
:10511000761CA189B0FBF1F201FB120104F1380009
:10512000475CA089B6FBF0F0A16A00EB010A51468A
:10513000204600F0B9FB00B157E0A089B6FBF0F1C2
:1051400000FB116104F13800405C47EA002705F0DC
:10515000010008B1380901E0C7F30B00804644E0C4
:10516000B4F80CA00AEBDA704010B5FBF0F0A16ABD
:1051700000EB010B5946204600F096FB00B134E0ED
:105180006800A189B0FBF1F201FB120104F13800C3
:1051900001EB000A504600F074F8804625E0B4F8B0
:1051A0000CA04FEAEA700AEB90708010B5FBF0F0AB
:1051B000A16A00EB010B5946204600F075FB00B1D7
:1051C00013E0A800A189B0FBF1F201FB120104F188
:1051D000380001EB000A504600F047F820F0704814
:1051E00003E0FFE74FF0010800BF00BF4046BDE805
:1051F000F09F0020704770B504464FF0FF302668DE
:105200003146324601B970BD00BF12F8013B202B78
:1052100001D33A2BF9D13A2B11D102250E78302E39
:1052200008DB0E78392E05DC8E1C964202D10E78F2
:10523000A6F13005022D01DA28462260E3E70020BE
:1052400000BFE0E770B505460C4604F11A0000F017
:1052500018F806462878032805D104F1140000F058
:1052600010F846EA0046304670BD0146C8788A7894
:1052700042EA00204A7842EA00200A7842EA002006
:105280007047014648780A7842EA002070470000DB
:10529000ADF5415D69A0D0E9003281680DF500509F
:1052A000C0E9033241614FF48051A0F6F470FBF77E
:1052B00054F90723022208214FF4A870FDF7ACFB34
:1052C000A820FEF7D3F94FF4E131542000F056FE48
:1052D000FBF70CFEFBF7E2FD0DE040205A49488346
:1052E0004FF4FA70FEF7E2F94020574908834FF473
:1052F000FA70FEF7DBF9FCF719F90028EDD153A09D
:10530000FBF740F8FEF710FD05461DB954A0FBF76A
:1053100039F803E0294657A0FBF734F85A4901222F
:1053200008685AA1FFF79AF9044614B958A0FBF788
:1053300029F80D2C21D14FF4805301AA002153A04C
:10534000FEF712FE04461CB1214656A0FBF71AF8E0
:1053500001224EA10020FFF781F904464A490122AB
:1053600008684AA1FFF77AF904464FF47A70FEF70D
:105370009DF921464FA0FBF705F80B2251A142F2FF
:1053800018006844FFF794F904461CB951A0FAF7D5
:10539000F9FF02E054A0FAF7F5FF002C33D141F2F7
:1053A00008036B440C2242F20C01694401F10C0029
:1053B000FFF7B1FB04461CB950A0FAF7E3FF02E087
:1053C00053A0FAF7DFFFF4B9002142F21800684455
:1053D000FEF7F9FC0DF50050A0F6FC73A0F6F47191
:1053E000426A1830FFF760FA04464CB94DA0FAF74C
:1053F000C9FF41F20C0169444FA0FAF7C3FF02E074
:1054000051A0FAF7BFFF42F218006844FEF7CAFC49
:1054100012E040200C4948834FF4FA70FEF746F939
:10542000402009490883802048834FF4FA70FEF732
:105430003DF9802004490883EBE700003132333422
:105440003536373839300A000000024053442069AD
:105450006E697420737563636565642121210A0098
:10546000206D616C6C6F635F696E69742121210A24
:10547000000000006D616C6C6F6320696E697420C0
:1054800069732025642E0A001C000020303A0000B9
:105490006D6F756E7420737563636573732121215D
:1054A0000A000000665F6D6B6673206973202564D7
:1054B0002E0A0000665F6D6F756E7420697320257B
:1054C000642E0A00303A6D795F66696C652E7478D7
:1054D000740000006F70656E20737563636573738D
:1054E0002121210A0000000063616E206E6F74208C
:1054F0006F70656E2121210A0000000077726974C7
:105500006520737563636573732121210A000000B0
:1055100063616E206E6F742077726974652121213A
:105520000A000000726561642073756363657373BC
:105530002121210A00000000636F6E74656E74A360
:10554000BA25730A0000000063616E206E6F74203C
:10555000726561642121210A00000000F0B5034654
:105560001D460C46002000BF15F8017B14F801CB46
:10557000A7EB0C00561E321E01D00028F4D0F0BD5F
:1055800030B503460C463AB100BF14F8015B03F88E
:10559000015B551E2A1EF8D130BD10B5034600BF71
:1055A00003F8011B541E221EFAD110BD2DE9F74F3E
:1055B00084B00021059801600498FFF71CFE039059
:1055C0000398002803DA0B2007B0BDE8F08FB0493C
:1055D000039851F820400CB90C20F5E705980460B9
:1055E000069800F0FE000690207878B16078FEF70B
:1055F0005FFB074607F0010040B9069820B107F0AD
:10560000040008B10A20DFE70020DDE70020207059
:10561000039860706078FEF7C2FA074607F0010051
:1056200008B10320D0E7069820B107F0040008B1C4
:105630000A20C9E7607804F10C020221FEF7C6FADD
:1056400008B10120C0E7A089B0F5805F07DCA08920
:10565000B0F5007F03DBA089411E084008B101209E
:10566000B2E700212046FFF727FC0546042D01D1B3
:105670000120A9E7022D01D30D20A5E7D4F834902D
:1056800004F14300FFF7FDFDA189884201D00D2000
:105690009AE704F14E00FFF7F4FD064626B904F13F
:1056A0005C00FFF7E2FD064626624820005DA07020
:1056B000A078012804D0A078022801D00D2083E72B
:1056C000A07846434520005D6081608918B16089FB
:1056D000411E084008B10D2076E704F14900FFF7AC
:1056E000D0FD2081A089C11700EBD1614911228929
:1056F00092FBF1F301FB132109B10D2064E704F1E2
:105700004B00FFF7BEFD8246BAF1000F04D104F151
:105710005800FFF7AAFD824604F14600FFF7B1FDED
:105720008346BBF1000F01D10D204DE7A089C117C1
:1057300000EBD1614911228992FBF1F10BEB0602DA
:105740001144029102998A4501D20D203CE702984A
:10575000AAEB00006189B0FBF1F8B8F1000F01D1AC
:105760000D2031E700254B48804500D803254FF632
:10577000F570804500D8022540F6F570804500D8C8
:1057800001250DB90D201FE708F10200E061C4F802
:10579000249009EB0B00A062029848442063032D7B
:1057A00013D104F16200FFF76CFD08B10D200BE787
:1057B000208908B10D2007E704F16400FFF755FDCB
:1057C000E062E0698000019014E0208908B90D20B2
:1057D000FAE6A06A3044E062022D02D1E06940009E
:1057E00007E0207F00F00100E16901EB410100EBDF
:1057F00051000190A089401E01990844A189B0FB85
:10580000F1F0216A884201D90D20DDE64FF0FF302A
:10581000A061606180202071032D2DD104F168000A
:10582000FFF72FFD012827D109F10101204600F0E3
:105830003BF808BB0020207104F23620FFF721FD61
:105840004AF65521884217D104F13800FFF70DFDC3
:105850001149884210D104F50770FFF706FD0F4982
:10586000884209D104F50870FFF7FFFCA06104F538
:105870000970FFF7FAFC6061257009480088401C38
:1058800080B207490880E0800648206100209BE63E
:1058900030000020F5FFFF0F5252614172724161EA
:1058A00038000020E813002070B504460D4600269D
:1058B000606BA84210D0204600F014FB06465EB98B
:1058C000607801232A4604F13801FEF7C5F910B1CA
:1058D0004FF0FF3501266563304670BD30B54FF49B
:1058E0009633174800F007042CB1C01D20F00700C4
:1058F000134C041B1B1B0246124C22600024114D4A
:105900006C60D018083820F007000F4C206000248D
:105910000D4D2D686C600C4D2D682C601146441A9D
:105920004C60094C24680C60084D4C682C60084D94
:105930004C682C604FF00044064D2C6030BD0000D8
:10594000B0160020840000208C000020940000206D
:1059500090000020A000002010B50146164800E08D
:10596000006803688B42FBD30246436813448B42B2
:1059700004D143684C682344436001460A464B689F
:1059800013440468A34211D10C4C03682468A34259
:1059900008D04B680468646823444B6003681B6844
:1059A0000B6005E0054B1B680B6001E003680B60B2
:1059B000884200D0016010BD840000208C000020CF
:1059C0000A490968096809B9012100E0002121B1EB
:1059D0004FF0FF31064A116006E004490968C968C2
:1059E000C868034A41681160704700004000002009
:1059F0006C0000202DE9F05F04460D4616464FF07E
:105A00000209022D72D3E069A8426FD920780128DB
:105A100004D0022857D0032811D179E02F4607EB94
:105A20005707A089B7FBF0F0A16A00EB010A5146C5
:105A30002046FFF739FF8146B9F1000F00D09DE005
:105A400038467F1CA189B0FBF1F201FB120104F181
:105A5000380001EB000805F0010028B1F1B298F818
:105A6000000061F31F1000E0304688F800000120BC
:105A7000E070A089B7FBF0F0A16A00EB010A514683
:105A80002046FFF711FF8146B9F1000F00D075E005
:105A9000A089B7FBF0F100FB117104F1380001EBB4
:105AA000000805F0010010B1C6F3071006E098F8F1
:105AB000000000F0F000C6F30321084388F800005E
:105AC0000120E0705AE0B4F80CA00AEBDA70401044
:105AD000B5FBF0F0A16A00EB010B59462046FFF739
