:020000040800F2
:1000000000350120F1020008FF020008010300088A
:1000100003030008050300080703000800000000B0
:100020000000000000000000000000003102000895
:100030000B030008000000008D020008B909000849
:100040001103000811030008110300081103000840
:100050001103000811030008110300081103000830
:100060001103000811030008110300081103000820
:100070001103000811030008110300081103000810
:100080001103000811030008110300081103000800
:1000900011030008110300081103000811030008F0
:1000A00011030008110300081103000811030008E0
:1000B00011030008110300081103000811030008D0
:1000C00011030008110300081103000811030008C0
:1000D00011030008F90A00081103000811030008C1
:1000E00011030008110300081103000811030008A0
:1000F0001103000811030008110300081103000890
:10010000110300081103000811030008110300087F
:10011000110300081103000811030008110300086F
:10012000110300081103000811030008110300085F
:10013000110300081103000811030008110300084F
:10014000110300081103000811030008110300083F
:10015000110300081103000811030008110300082F
:10016000110300081103000811030008110300081F
:10017000110300081103000811030008000000002B
:10018000110300081103000800F002F800F041F824
:100190000AA090E8000C82448344AAF10107DA45E2
:1001A00001D100F036F8AFF2090EBAE80F0013F0F3
:1001B000010F18BFFB1A43F001031847CC290000B8
:1001C000EC290000103A24BF78C878C1FAD8520749
:1001D00024BF30C830C144BF04680C6070470000C1
:1001E0000023002400250026103A28BF78C1FBD840
:1001F000520728BF30C148BF0B607047642900F028
:10020000DD80002070471FB502F0B8FC1FBD10B59F
:1002100010BD00F063FA1146FFF7F5FF00F0DCFCBB
:1002200000F081FA03B4FFF7F2FF03BC00F0A4FC76
:100230002C4B19680868B0E8F04F80F30988BFF3C9
:100240006F8F4FF0000080F31188704700000000AE
:1002500008480068006880F308884FF0000080F3C9
:10026000148862B661B6BFF34F8FBFF36F8F00DFA4
:1002700000BF00BF08ED00E0DFF80C00016841F4AA
:1002800070010160704700BF88ED00E0EFF3098066
:10029000BFF36F8F134B1A681EF0100F08BF20EDCD
:1002A000108A20E9F04F106009B44FF0500080F33D
:1002B0001188BFF34F8FBFF36F8F01F005FE4FF032
:1002C000000080F3118809BC19680868B0E8F04F95
:1002D0001EF0100F08BFB0EC108A80F30988BFF33E
:1002E0006F8F70472C000020EFF3058070470000EF
:1002F0000B48016841F4700101600A480047FEE7BD
:10030000FEE7FEE7FEE7FEE7FEE7FEE7FEE7FEE7C5
:10031000FEE7000004480549054A064B7047000007
:1003200088ED00E089010008002F01200035012040
:100330000031012000310120704700000FB4044952
:1003400010B503AA029800F047F910BC5DF814FB41
:10035000240000202DE9F0410E46044600202062D2
:100360002046E168884730B3252805D0D4E901212B
:100370009047206A401CF2E7E16820460027884742
:10038000050018D0A5F14100192802D820354FF4F6
:1003900000673246294620462760FFF72FFF40B10D
:1003A000012804D0F61D26F007060836D8E7361DCA
:1003B000D6E72846DAE7206ABDE8F0812DE9F0416A
:1003C0000646002410687529314616A510D0AFF3F3
:1003D0000080002802DA404213A507E031688A074E
:1003E00001D512A502E0490704D511A5012401E0B9
:1003F000AFF3008000210A2206F1240709E0B0FBD8
:10040000F2FCB0FBF2F302FB1C00303078541846CB
:10041000491C0028F3D123462A463046BDE8F04166
:1004200000F080B8000000002D0000002B0000004C
:1004300020000000032A40F2308010F0030C00F08E
:10044000158011F8013BBCF1020F624498BF11F80E
:1004500001CB00F8013B38BF11F8013BA2F10402C7
:1004600098BF00F801CB38BF00F8013B11F003033F
:1004700000F0C480083AC0F0088051F8043B083A04
:1004800051F804CBA0E80810F5E7121D5CBF51F845
:10049000043B40F8043BAFF30080D20724BF11F8BF
:1004A000013B11F801CB48BF11F8012B24BF00F824
:1004B000013B00F801CB48BF00F8012B704702F068
:1004C000FF0343EA032242EA024200F0CBB84FF0B6
:1004D000000200B5134694469646203922BFA0E894
:1004E0000C50A0E80C50B1F12001BFF4F7AF0907A0
:1004F00028BFA0E80C5048BF0CC05DF804EB890091
:1005000028BF40F8042B08BF704748BF20F8022BD3
:1005100011F0804F18BF00F8012B704770477047EB
:10052000704770472DE9F0470D46994692460446BC
:1005300000F124080168880604D5E06921F0100163
:10054000216000E00120A84201DD471B00E00027F8
:10055000A1697A1902EB0900081AA0612078C00687
:1005600002D42046AFF30080002608E0D4E9012140
:100570001AF806009047206A401C761C20624E45FF
:10058000F4DB2078C0060AD52046AFF3008006E0F1
:10059000D4E9012130209047206A401C2062381E97
:1005A000A7F10107F4DC07E0D4E9012118F8050000
:1005B0009047206A401C2062281EA5F10105F3DC4B
:1005C0002046AFF300802078000602D50220BDE867
:1005D000F0870120FBE70000074B70B50D467B4418
:1005E00000F065F80446284600F074F810B14FF0AA
:1005F000FF3070BD204670BDDB05000010B5203A0D
:10060000C0F00B80B1E81850203AA0E81850B1E8CB
:100610001850A0E81850BFF4F5AF5FEA027C24BF81
:10062000B1E81850A0E8185044BF18C918C0BDE878
:1006300010405FEA827C24BF51F8043B40F8043B41
:1006400008BF7047D20728BF31F8023B48BF11F8F6
:10065000012B28BF20F8023B48BF00F8012B704750
:100660004FF000020429C0F0128010F0030C3FF498
:1006700030AFCCF1040CBCF1020F18BF00F8012B15
:10068000A8BF20F8022BA1EB0C01FFF722BF5FEA05
:10069000C17C24BF00F8012B00F8012B48BF00F8F3
:1006A000012B704701694A1C02610878704700B548
:1006B0008FB0CDE901310021059105497944CDE99B
:1006C000031011466846FFF745FE0FB000BD00005D
:1006D000E5FFFFFF007B00F080007047754600F0EB
:1006E0002BF8AE4605006946534620F007008546C4
:1006F00018B020B5FFF70EFEBDE820404FF0000611
:100700004FF000074FF000084FF0000B21F00701F9
:10071000AC46ACE8C009ACE8C009ACE8C009ACE83C
:10072000C0098D46704710B50446AFF300802046DF
:10073000BDE81040FFF776BD00487047A02E0120AD
:1007400030B5CC1000F1200353F824304C07E50EEF
:100750000F24AC40A343CD1000F1200444F8253011
:10076000CC1000F1200353F824304C07E40E02FAB9
:1007700004F42343CD1000F1200444F8253030BDAB
:100780002DE9F0470C46DDE90867002100258C467D
:1007900000BF60E04FF0010808FA01F504EA050C1B
:1007A000AC4557D1D0F800804FEA410A4FF0030919
:1007B00009FA0AF928EA0908C0F80080D0F8008090
:1007C0004FEA410902FA09F948EA0908C0F800802D
:1007D000012A01D0022A27D1D0F808804FEA410A25
:1007E0004FF0030909FA0AF928EA0908C0F8088055
:1007F000D0F808804FEA410906FA09F948EA0908E1
:10080000C0F80880D0F804904FF0010808FA01F809
:1008100029EA0809C0F80490D0F8048003FA01F925
:1008200048EA0908C0F80480D0F80C804FEA410A71
:100830004FF0030909FA0AF928EA0908C0F80C8000
:10084000D0F80C804FEA410907FA09F948EA09088B
:10085000C0F80C80491C10299CD3BDE8F08700002B
:100860001CB50B48006840F00100094908600120F0
:10087000032100230246CDE90010C0210548FFF7FF
:100880007FFF0120044908600449C1F89C021CBD97
:1008900030380240000002409802404200004042CE
:1008A0002DE9F0410746884614461D46284600F0CB
:1008B00033F8C5F1040007FA00F60F20284100EADA
:1008C0000800064306F00F06E21704EBD26252114D
:1008D000920002F1E022D2F800212146E31704EB56
:1008E000D3635B11A4EB431C012303FA0CF31A43FB
:1008F0002046E31704EBD3635B119B0003F1E02375
:10090000C3F800210348005D40EA0610014908557C
:10091000BDE8F08100E400E00146072323EA01027C
:100920001202054B18684FF6FF031840034B18439B
:100930001043014B186070470CED00E00000FA0511
:100940004A0A52020243014B1A60704708ED00E068
:10095000F0B504460D4616461F461448006840F0A0
:1009600001001249086000201049083108600F4852
:1009700000680F4908400D4908600E48091D0860CD
:10098000081F006820F48020091F08600020074924
:100990000C3108603B4632462946204600F026F8D6
:1009A00000210846FFF7CCFFF0BD000000380240F0
:1009B000FFFFF6FE1030002410B500BF502080F37A
:1009C0001188BFF34F8FBFF36F8F00BF01F092FE0E
:1009D00018B14FF080500449086000BF002080F338
:1009E000118800BF10BD000004ED00E0F0B5044622
:1009F0000D46002100203D4E366846F480363B4FC0
:100A00003E6001E04E1CB1B2384E366806F4003646
:100A10001EB941F6FF76B142F4DB41F6FF76B142F2
:100A200001D1012060E0314E4036366846F08056F4
:100A30002E4F40373E602E4E366846F440462C4FCF
:100A40003E602A4E0836366846F41446274F08376B
:100A50003E60264E366826F08076244F3E6045EA9A
:100A600084160127C7EB520746EA074646EA0366A3
:100A700046F480061D4F3F1D3E603E1F366846F01F
:100A800080763F1F3E6000BF184E366806F0007645
:100A9000002EF9D0174E366846F48076154F3E602A
:100AA0003E46366846F400763E603E46366846F47A
:100AB00080663E603E46366846F005063E600B4E58
:100AC0000836366826F00306084F08373E603E4673
:100AD000366846F002063E6000BF044E08363668AF
:100AE00006F00C06082EF8D1F0BD000000380240D8
:100AF00000700040003C02401C49098801F02001C0
:100B000009B31A498988C8B21949098801F4004112
:100B1000C9B91749098801F4804161B10A2803D095
:100B20000021134A118020E01149098841F4004155
:100B30000F4A118019E00D2806D10D49098841F4AA
:100B400080410B4A118010E009490988C1F30D0169
:100B5000084A505406490988491C054A1180114623
:100B60000988C72901DD002111807047001001406C
:100B700028000020A800002000BF70474FF0E021AF
:100B8000096921F004014FF0E0221161C21700EB66
:100B90005272C2F3C702074B1A701946097801EB6B
:100BA0004102C2EBC1114FF6FF7202EAC101024AD3
:100BB00011807047200000202200002000BF054A5D
:100BC000128802F04002002AF9D0C2B2014B9A808A
:100BD00070470000001001401CB5072302220821C5
:100BE0004FF4A870FFF7B4FEA820FFF7C7FFFFF788
:100BF00037FE4FF4E131542000F02EFE064801216B
:100C000000237822CDE9001004A1074801F02CFD53
:100C100001F008F900201CBD00000020737461720F
:100C2000745F7461736B00006D1700082DE9F0416B
:100C300005460E461C4807681C480068001D00F069
:100C40008BFE50B91948006890F82C10012088409C
:100C500017490968814316480160681C38B936B1E4
:100C600012480168091D134800F0B4FE1AE07C190F
:100C70000E4800684460BC4207D20C480168091D58
:100C80000D48006800F08CFE0CE008480168091D62
:100C90000A48006800F084FE09480068844201D2D6
:100CA00007480460BDE8F081400000202C000020CF
:100CB00044000020640200203400002030000020A6
:100CC0005C00002010B5044600F090FE2448006847
:100CD000401C234908602348006840B9214804604B
:100CE0000846006801280DD100F0D6F90AE01E4838
:100CF000006838B91B480068C06AE16A884201D8B8
:100D00001848046019480068401C184908600846E3
:100D10000068206494F82C10012088401449096868
:100D2000084313490860E16A01EB8101114A02EBB3
:100D30008100211D00F04EFE00F082FE0A4800688E
:100D400068B108480068C06AE16A884207D24FF07B
:100D5000805009490860BFF34F8FBFF36F8F10BDFC
:100D60003C0000202C0000204800002058000020FB
:100D700044000020B001002004ED00E010B500F0B8
:100D800035FE10480068D0B90F4800F0F9FD0F4853
:100D900000F0F6FD0C480E4908600C480D4908604B
:100DA00000220C210A2001F09DF90649086008463E
:100DB000006820B108A10348006800F001FF00F0BE
:100DC0003FFE10BD70000020780200208C02002041
:100DD000680000206C000020546D7251000000007B
:100DE00010B516E000F002FE0C48C068C468201D73
:100DF00000F0B2FD0A480068401E09490860094831
:100E00000068401E0749086000F01AFE204600F006
:100E10005FF8044800680028E4D110BD50020020AB
:100E20003C0000203800002070B504460D46206CC0
:100E300070B1216CE0680144E160D4E9021088429D
:100E400001D32168E1602846226CE168FFF7F2FADD
:100E500070BD2DE9F04104460F4615464FF00008DD
:100E6000A66B206C48B9206800282CD1A06801F03E
:100E7000E5FC80460020A06025E07DB93946226C63
:100E80006068FFF7D7FA216C606808446060D4E9B5
:100E90000101884217D32068606014E03946226C53
:100EA000E068FFF7C7FA216CE068411AE160216849
:100EB000E068884203D2216CA068411AE160022DEB
:100EC00001D106B1761E701CA0634046BDE8F081DA
:100ED00010B50446206B00F0D1FD204600F0CEFD99
:100EE00010BD00000146084A126812680AB90122C2
:100EF00000E000220A600A6822B9034A1268D26838
:100F0000106800E0002070476800002030B54FF402
:100F10009633174800F007042CB1C01D20F00700DD
:100F2000134C041B1B1B0246124C22600024114D63
:100F30006C60D018083820F007000F4C20600024A7
:100F40000D4D2D686C600C4D2D682C601146441AB7
:100F50004C60094C24680C60084D4C682C60084DAE
:100F60004C682C604FF00044064D2C6030BD0000F2
:100F7000A00200207C000020840000208C000020C3
:100F8000880000209800002000BFFFF729FF0648D6
:100F900000680128F9D94FF0805004490860BFF378
:100FA0004F8FBFF36F8FF0E7B001002004ED00E03A
:100FB0002DE9F04106460D4617469846069C0DB9A8
:100FC000246000E02760E66325640121204601F0EB
:100FD000B3F884F84C80BDE8F0812DE9F05F8246DB
:100FE0000E4690469B460A9F0C9C4FEA8801A5221C
:100FF000206BFFF764FAA8F10100216B01EB800977
:1010000029F0070909F0070008B9012000E00020D5
:1010100050B900BF502080F31188BFF34F8FBFF34A
:101020006F8F00BF00BFFEE786B1002507E0715D4E
:1010300004F134004155705D00B902E06D1C0A2DC9
:10104000F5D300BF00213D20015502E0002084F8C7
:101050003400052F00D30427E762A7640020E06472
:10106000201D00F09AFC04F1180000F096FC2461A9
:10107000C7F10500A06164620020206584F8540077
:101080005A465146484600F05BFB20600B9808B179
:101090000B980460BDE8F09F10B5002407E004EB56
:1010A00084010F4A02EB810000F06AFC641C052CED
:1010B000F5D30C4800F064FC0B4800F061FC0B48D1
:1010C00000F05EFC0A4800F05BFC0A4800F058FCA7
:1010D00004480949086004480849086010BD000038
:1010E000B001002014020020280200203C02002051
:1010F0005002002064020020300000203400002054
:1011000010B50146164800E0006803688B42FBD327
:101110000246436813448B4204D143684C6823441D
:10112000436001460A464B6813440468A34211D148
:101130000C4C03682468A34208D04B6804686468B8
:1011400023444B6003681B680B6005E0054B1B687C
:101150000B6001E003680B60884200D0016010BDA5
:101160007C000020840000202DE9F04104460D465B
:1011700016461F464FF0000865602461B5420CD842
:10118000F01BA169884202D34FF0010811E0211D34
:101190000948006800F004FC0BE0BE4204D2BD42E6
:1011A00002D34FF0010804E0211D0448006800F05C
:1011B000F7FB4046BDE8F0816C000020680000208D
:1011C00070B5054600F012FCA86B08B9012400E0D8
:1011D000002400F035FC204670BD70B5054600F0D7
:1011E00005FCA86BE96B884201D1012400E00024D2
:1011F00000F026FC204670BDF8B505460F461A489B
:101200000068C068C468201D00F0A6FB94F82800A0
:1012100000F00400E8B1A06941192B463A46204687
:10122000FFF7A2FFD8B1002003462A4601460090EE
:10123000204601F061FC064656B900BF502080F3FD
:101240001188BFF34F8FBFF36F8F00BF00BFFEE762
:1012500005E094F8280020F0010084F828002046DA
:10126000216A8847F8BD00006800002070B586B08C
:101270008BE003980028FBDB059C606908B901201E
:1012800000E0002010B9201D00F066FB02A800F06D
:10129000DDF8054603980A2875D2DFE800F0090555
:1012A0000739416306083A4200BF00BF00BF00BFD4
:1012B00094F8280040F0010084F828000498A269FE
:1012C000811803462A462046FFF74EFFF8B1204614
:1012D000216A884794F8280000F00400B8B1002083
:1012E00000900498A169421800231946204601F095
:1012F00003FC064656B900BF502080F31188BFF3A7
:101300004F8FBFF36F8F00BF00BFFEE700BF3BE012
:1013100000BF94F8280020F0010084F8280033E092
:1013200000BF94F8280040F0010084F828000498D9
:10133000A061A06908B1012000E0002050B900BF01
:10134000502080F31188BFF34F8FBFF36F8F00BF22
:1013500000BFFEE7A06941192B462A462046FFF749
:1013600003FF11E094F8280000F0020018B92046AD
:1013700000F084FB05E094F8280020F0010084F8D8
:10138000280001E0FFE700BF00BF002203A90448D6
:10139000006801F06FF800287FF46BAF06B070BDF5
:1013A00070000020F8B505460C4600F085FD684643
:1013B00000F04CF80646009820BB44B9B54206D868
:1013C00001F0ECFA31462846FFF716FF1CE03CB16D
:1013D0000E480068006808B9012000E000200446BB
:1013E000A91B22460A48006800F000FC01F0D6FA6A
:1013F00050B94FF0805007490860BFF34F8FBFF3DB
:101400006F8F01E001F0CAFAF8BD00006C00002007
:101410007000002004ED00E00A490968096809B974
:10142000012100E0002121B14FF0FF31064A116097
:1014300006E004490968C968C868034A4168116040
:1014400070470000300000205C00002070B50446AA
:1014500001F04AF9054607480068854204D200F0C9
:101460000BF80120206001E00020206001480560A9
:10147000284670BD780000202DE9F84334E0254867
:101480000068C068056823480068C068C468201DFB
:1014900000F062FA2046216A884794F8280000F09C
:1014A000040008B3A0694619AE4207D966602461FA
:1014B000211D1848006800F073FA15E0002003466B
:1014C0002A4601460090204601F016FB074657B910
:1014D00000BF502080F31188BFF34F8FBFF36F8F91
:1014E00000BF00BFFEE700BF0A480068006808B9F7
:1014F000012000E000200028C1D00648D0F800807C
:1015000005480068034908600348C0F80080BDE84A
:10151000F8830000680000206C0000200E4800687E
:10152000401C08B9012000E0002050B900BF502045
:1015300080F31188BFF34F8FBFF36F8F00BF00BFE1
:10154000FEE700BF502080F31188BFF34F8FBFF339
:101550006F8F00BF00BFFEE79C00002008B500BFF2
:101560006846FFF7BFFC044620460099FFF71AFFC4
:10157000FFF77CFEF4E770B5044600F037FA94F903
:10158000455010E0606A08B9012000E0002038B939
:1015900004F1240001F0B6F918B100F001FC00E0FC
:1015A00003E0681E45B2002DECDC00BFFF2084F88C
:1015B000450000F045FA00F019FA94F9445010E0A3
:1015C000206908B9012000E0002048B904F11000AA
:1015D00001F098F908B100F0E3FB681E45B200E0A5
:1015E00001E0002DECDC00BFFF2084F8440000F097
:1015F00027FA70BD2DE9F04104464FF0000800F0D5
:101600005BFC4948006808B9FFF780FC4748006860
:101610002040002870D1D4B1083404F00700B0B1E4
:1016200004F00700C0F10800044404F0070008B902
:10163000012000E0002050B900BF502080F3118845
:10164000BFF34F8FBFF36F8F00BF00BFFEE7002CCB
:1016500052D03748006884424ED8364E304605682E
:1016600001E02E462D686868A04202D22868002852
:10167000F7D12D48006885423ED0306800F1080857
:10168000286830606868001B102819D92F1907F0E6
:10169000070008B9012000E0002050B900BF502029
:1016A00080F31188BFF34F8FBFF36F8F00BF00BF70
:1016B000FEE76868001B78606C603846FFF720FD25
:1016C0001B4968680968081A1949086008460068D3
:1016D00019490968884203D215480068164908600C
:1016E0001249686809680843686000202860134848
:1016F0000068401C1149086001F050F908F007002B
:1017000008B9012000E0002050B900BF502080F34C
:101710001188BFF34F8FBFF36F8F00BF00BFFEE78D
:101720004046BDE8F08100008400002098000020C1
:10173000880000207C0000208C0000209000002009
:10174000001F4FF080730360001F21F0010303604E
:10175000001F054B036014380260001F6FF0020386
:1017600003602038704700001D1500081CB50446B2
:101770000C48022100237822CDE900100AA10D486F
:1017800000F072FF0C48032100237822CDE90010FD
:101790000AA10D4800F068FF0C48006800F07AFAD2
:1017A0001CBD0000040000207461736B315F746124
:1017B000736B0000D1170008080000207461736B80
:1017C000325F7461736B0000151800080000002080
:1017D00000240FE0601CC4B207480068C0430749FA
:1017E000C1F89802214606A0FEF7A8FD4FF4FA7052
:1017F00000F022FAEEE7000098024042000040426A
:101800005461736B312052756E696E6720256420B8
:10181000210D0A0000240FE0601CC4B207480068D4
:10182000C0430749C1F89C02214606A0FEF786FD89
:101830004FF47A7000F000FAEEE700009C0240429C
:10184000000040425461736B322052756E696E67BE
:10185000202564210D0A0000F0B52DED028B83B028
:1018600005460E46384905FB01F000EE100AF8EE79
:10187000400A300100EE100AB8EE400A80EE801AED
:10188000B0EE418ABCEEC80A10EE100A84B200EE37
:10189000104AB8EE400A38EE400AF3EE000A20EE95
:1018A000200ABCEEC00A10EE107A4FF6FF7000EA74
:1018B0000414E01984B22548006840F0010023496F
:1018C000086022481430006840F010001F491431AD
:1018D00008600120022100230A46CDE900104FF4E0
:1018E000C0611B48FEF74CFF072209211848FEF78C
:1018F00027FF07220A211648FEF722FF1548048118
:10190000808920F40040134988810846808940F08E
:10191000080088810846808940F0040088810846D4
:10192000808940F020008881022325220321084677
:10193000FEF7B6FF0748808940F4005005498881CA
:1019400003B0BDEC028BF0BD40420F0030380240C6
:10195000000002400010014001460A69D1E901304F
:101960009860D1E9010358605068884201D18868C5
:101970005060002008611068401E106010687047B9
:1019800000F1080141604FF0FF31816000F1080172
:10199000C160016100210160704700210161704751
:1019A00010B502460B685C1C0CB9106907E002F127
:1019B000080000E04068446824689C42FAD9446802
:1019C0004C604C68A160886041600A611468641CC6
:1019D000146010BD42684A6093688B6093685960D8
:1019E0009160086103685B1C0360704700BF502072
:1019F00080F31188BFF34F8FBFF36F8F00BF0E4886
:101A00000068401C0C49086008460068012812D193
:101A10000A480068C0B208B9012000E0002050B9AF
:101A200000BF502080F31188BFF34F8FBFF36F8F3B
:101A300000BF00BFFEE770479C00002004ED00E0FF
:101A40000D48006850B900BF502080F31188BFF3E3
:101A50004F8FBFF36F8F00BF00BFFEE706480068DF
:101A6000401E054908600846006820B9002080F340
:101A7000118800BF00BF70479C00002070B506466B
:101A80003546002E44D0083D2C462249606809683E
:101A9000084008B1012000E0002050B900BF5020EC
:101AA00080F31188BFF34F8FBFF36F8F00BF00BF6C
:101AB000FEE7206808B9012000E0002050B900BF0F
:101AC000502080F31188BFF34F8FBFF36F8F00BF9B
:101AD00000BFFEE70F49606809680840C0B1206890
:101AE000B0B90C49606809688843606000F0E4F9A7
:101AF0000949606809680844074908602046FFF7FB
:101B0000FFFA06480068401C0449086000F046FFE0
:101B100070BD000098000020880000209400002084
:101B200000204FF0E02108618861064800684FF40A
:101B30007A71B0FBF1F0401E4FF0E02148610720C0
:101B4000086170470C00002070B5FEF7CDFB04461D
:101B5000102C16D304F1E02090F8F05315480078CB
:101B6000854201DB012000E0002050B900BF502079
:101B700080F31188BFF34F8FBFF36F8F00BF00BF9B
:101B8000FEE70D48006800F4E0600C4909688842EF
:101B900001D8012000E0002050B900BF502080F3A0
:101BA0001188BFF34F8FBFF36F8F00BF00BFFEE7F9
:101BB00070BD0000A00000200CED00E0A40000209B
:101BC000024600200BE0084B53F8303033B9064B87
:101BD00043F8301003EBC0035A6002E0401C0828B1
:101BE000F1D300BF70470000700100202DE9F041E3
:101BF00005460E4617462C46FFF7F8FE94F94400BA
:101C0000401C10B9002084F8440094F94500401CA1
:101C100010B9002084F84500FFF712FFA06B28B927
:101C20003A46314604F1240000F0DCF82046FFF784
:101C3000A2FCBDE8F081000070B504460025D4B1D7
:101C40001248006808B9012000E0002050B900BF28
:101C5000502080F31188BFF34F8FBFF36F8F00BF09
:101C600000BFFEE700F028F900212046FEF7DEFF66
:101C700000F094FE05463DB94FF0805004490860DD
:101C8000BFF34F8FBFF36F8F70BD00006400002063
:101C900004ED00E070B50546FFF7A8FE15B9304821
:101CA000006800E028460446201DFFF755FE78B97D
:101CB000E06A00EB80002B4951F8200040B994F80D
:101CC0002C1001208840284909688143264801607A
:101CD000A06A18B104F11800FFF73EFE234800681F
:101CE000401C224908601E480068844209D1211D19
:101CF0001F48FFF76FFE1F480068401C1D49086021
:101D000009E01D480068401E1B4908602046FFF797
:101D1000DFF8FFF781FBFFF793FE18480068E8B192
:101D20000F480068844219D11548006808B901209D
:101D300000E0002050B900BF502080F31188BFF3AD
:101D40004F8FBFF36F8F00BF00BFFEE74FF0805093
:101D50000C490860BFF34F8FBFF36F8F70BD000059
:101D60002C000020B001002044000020580000207A
:101D700050020020380000203C00002048000020D5
:101D80006400002004ED00E0034909680160034994
:101D900009684160704700005400002040000020A6
:101DA00001200149086070475000002070B50446CA
:101DB0000D4654B900BF502080F31188BFF34F8FF8
:101DC000BFF36F8F00BF00BFFEE705480168183101
:101DD0002046FFF7E5FD01212846FEF727FF70BDED
:101DE0002C00002070B505460E46144655B900BFBC
:101DF000502080F31188BFF34F8FBFF36F8F00BF68
:101E000000BFFEE70648016818312846FFF7E2FDEB
:101E10000CB14FF0FF3621463046FEF707FF70BD8C
:101E20002C0000201CB51D4800210B468222CDE964
:101E300000101BA11C4800F017FC0446012C02D125
:101E400000F02EFE0446012C15D100BF502080F377
:101E50001188BFF34F8FBFF36F8F00BF4FF0FF307C
:101E600012490860012012490860002011490860E9
:101E700000F070F810E0601C08B1012000E00020C4
:101E800050B900BF502080F31188BFF34F8FBFF3CC
:101E90006F8F00BF00BFFEE71CBD00006000002088
:101EA00049444C4500000000890F00085C000020F8
:101EB000480000204000002002480068401C014902
:101EC00008607047640000201D48006818B10120B8
:101ED0001C49086032E000201A4908601A4800686E
:101EE000B0FA80F0C0F11F0101EB8100174A52F8EF
:101EF000200008B1012000E0002050B900BF5020B0
:101F000080F31188BFF34F8FBFF36F8F00BF00BF07
:101F1000FEE701EB81020D4B03EB82004268526841
:101F2000426000F108024368934202D1426852685D
:101F300042604268D268064B1A6000BF70470000DA
:101F4000640000205000002044000020B001002068
:101F50002C0000201CB55C4800685C49884201D018
:101F6000012000E0002050B900BF502080F311880C
:101F7000BFF34F8FBFF36F8F00BF00BFFEE7524824
:101F800000685249491E884201D0012000E000202B
:101F900050B900BF502080F31188BFF34F8FBFF3BB
:101FA0006F8F00BF00BFFEE74949084600780190E7
:101FB000FF200A4610700846007800909DF8000047
:101FC00000F0F0009DF80020904201D1012000E0D7
:101FD000002050B900BF502080F31188BFF34F8F0D
:101FE000BFF36F8F00BF00BFFEE79DF8000000F059
:101FF0005000384A10700720374A106009E0364810
:102000000068401E344A10609DF800004006000E33
:1020100000909DF8000000F080008028EFD02E484E
:102020000068C0F10700042801D1012000E0002071
:1020300050B900BF502080F31188BFF34F8FBFF31A
:102040006F8F00BF00BFFEE723480068C0F10700A4
:10205000042801D1012000E0002050B900BF502029
:1020600080F31188BFF34F8FBFF36F8F00BF00BFA6
:10207000FEE7194800680002174A10601046008801
:1020800000F4E0601060124A019810700E48203091
:10209000006840F470000C49203108600846006870
:1020A00040F070400860FFF73BFD00200B490860DE
:1020B000FEF7E2F80A48006840F04040084908602E
:1020C000FEF7C6F800201CBD00ED00E071C20F4114
:1020D00000E400E0A0000020A40000209C000020FC
:1020E00034EF00E02DE9F84305460E4617460DB1E2
:1020F000012000E0002050B900BF502080F311887B
:10210000BFF34F8FBFF36F8F00BF00BFFEE705FB2C
:1021100006F808F15000FFF76DFA04464CB1A146ED
:1021200009F150093B464A46314628460094FEF7DD
:102130003FFF2046BDE8F88370B505460E462C46A5
:1021400054B900BF502080F31188BFF34F8FBFF305
:102150006F8F00BF00BFFEE7FFF748FCD4E90F1206
:10216000206801FB0200A0600020A063206860607E
:10217000E06B401E226C216800FB0211E160FF2031
:1021800084F8440084F845009EB9206908B901200C
:1021900000E00020A8B904F1100000F0B3FB80B10A
:1021A0004FF0805009490860BFF34F8FBFF36F8F26
:1021B00007E004F11000FFF7E3FB04F12400FFF750
:1021C000DFFBFFF73DFC012070BD000004ED00E0E7
:1021D0002DE9FF4383B0064688461D464FF00009AF
:1021E000344654B900BF502080F31188BFF34F8F9D
:1021F000BFF36F8F00BF00BFFEE7B8F1000F01D142
:10220000206C08B9012000E0002050B900BF502028
:1022100080F31188BFF34F8FBFF36F8F00BF00BFF4
:10222000FEE7022D02D1E06B012801D1012000E080
:10223000002050B900BF502080F31188BFF34F8FAA
:10224000BFF36F8F00BF00BFFEE700F03DFA08B993
:10225000059808B9012000E0002050B900BF5020C7
:1022600080F31188BFF34F8FBFF36F8F00BF00BFA4
:10227000FEE700BFFFF7BAFBA06BE16B884201D31A
:10228000022D28D12A4641462046FEF7E2FD0746A8
:10229000606A08B9012000E0002068B904F1240058
:1022A00000F030FB88B14FF0805032490860BFF336
:1022B0004F8FBFF36F8F08E03FB14FF080502D4933
:1022C0000860BFF34F8FBFF36F8FFFF7B9FB01209B
:1022D00007B0BDE8F083059818B9FFF7B1FB0020FF
:1022E000F6E7B9F1000F04D101A8FFF74DFD4FF05B
:1022F0000109FFF7A5FBFFF7DFFDFFF777FB94F977
:102300004400401C10B9002084F8440094F94500B2
:10231000401C10B9002084F84500FFF791FB05A987
:1023200001A800F05BF9F0B92046FEF756FFA0B116
:1023300004F110000599FFF739FD2046FFF71BF95E
:1023400000F02CFB002895D14FF08050094908601F
:10235000BFF34F8FBFF36F8F8CE72046FFF70BF96A
:1023600000F01CFB86E72046FFF705F900F016FB9E
:102370000020ADE704ED00E02DE9F84F07468A465E
:1023800090461E463C4654B900BF502080F3118849
:10239000BFF34F8FBFF36F8F00BF00BFFEE7BAF1EF
:1023A000000F01D1206C08B9012000E0002050B9D5
:1023B00000BF502080F31188BFF34F8FBFF36F8FA2
:1023C00000BF00BFFEE7022E02D1E06B012801D161
:1023D000012000E0002050B900BF502080F3118898
:1023E000BFF34F8FBFF36F8F00BF00BFFEE7FFF754
:1023F000ABFB00BF5021EFF3118081F31188BFF3D5
:102400004F8FBFF36F8F00BF0546A06BE16B884213
:1024100001D3022E25D194F945B0A06B009032462D
:1024200051462046FEF715FD0BF1010088B9606AA0
:1024300008B9012000E0002050B904F1240000F0A8
:1024400061FA28B1B8F1000F02D00120C8F80000ED
:1024500004E00BF1010040B284F845004FF001099F
:1024600001E04FF0000900BF85F3118800BF484626
:10247000BDE8F88F2DE9F74183B005460E464FF0D1
:1024800000082C4654B900BF502080F31188BFF3D8
:102490004F8FBFF36F8F00BF00BFFEE70EB9206CF8
:1024A00008B9012000E0002050B900BF502080F39F
:1024B0001188BFF34F8FBFF36F8F00BF00BFFEE7E0
:1024C00000F002F908B9059808B9012000E00020E1
:1024D00050B900BF502080F31188BFF34F8FBFF376
:1024E0006F8F00BF00BFFEE700BFFFF77FFAA76B4B
:1024F000F7B131462046FEF797FC781EA0632069AD
:1025000008B9012000E0002060B904F1100000F0DB
:10251000F9F938B14FF080502F490860BFF34F8F61
:10252000BFF36F8FFFF78CFA012006B0BDE8F08192
:10253000059818B9FFF784FA0020F6E7B8F1000F04
:1025400004D101A8FFF720FC4FF00108FFF778FA4B
:10255000FFF7B2FCFFF74AFA94F94400401C10B9A7
:10256000002084F8440094F94500401C10B9002074
:1025700084F84500FFF764FA05A901A800F02EF8D9
:10258000F0B92046FEF71CFEA0B104F12400059925
:10259000FFF70CFC2046FEF7EEFF00F0FFF90028E5
:1025A000A3D14FF080500C490860BFF34F8FBFF3A9
:1025B0006F8F9AE72046FEF7DEFF00F0EFF994E711
:1025C0002046FEF7D8FF00F0E9F92046FEF7F8FDB7
:1025D00000288AD00020A8E704ED00E070B5054689
:1025E0000C4655B900BF502080F31188BFF34F8FC0
:1025F000BFF36F8F00BF00BFFEE754B900BF50208C
:1026000080F31188BFF34F8FBFF36F8F00BF00BF00
:10261000FEE7FFF7EBF9124802686868131A2068B2
:10262000401C08B9002617E00E492868096888424E
:1026300004D06868904201D801260DE020689842D5
:1026400007D92068C01A20602846FFF79DFB0026A6
:1026500002E0002020600126FFF7F2F9304670BD4D
:1026600040000020540000202DE9FF4F85B0804637
:1026700089461746DDE912ABB800FEF7BBFF0646F8
:1026800056B15820FEF7B6FF04460CB1266304E0AD
:102690003046FFF7F3F900E000247CB10020CDE9DB
:1026A00000ABCDE902403A4649464046089BFEF75A
:1026B00094FC2046FEF706FB012501E04FF0FF35B4
:1026C000284609B0BDE8F08F0549096809B901201D
:1026D00005E00449096809B9022000E000207047BC
:1026E000480000206400002001490868704700008D
:1026F000400000202DE9F0414FF0000844480068F8
:1027000000287CD143480068451C4248056015BB41
:1027100041480068006808B9012000E0002050B975
:1027200000BF502080F31188BFF34F8FBFF36F8F2E
:1027300000BF00BFFEE738480768384800683649E0
:1027400008603648076036480068401C3449086015
:10275000FEF762FE00BF3348006885423CD300BFED
:102760002D480068006808B9012000E0002020B171
:102770004FF0FF302B4908602DE027480068C06803
:10278000C4686668B54202D22648066023E0201D70
:10279000FFF7E2F8A06A18B104F11800FFF7DCF8BF
:1027A00094F82C10012088401F49096808431E49ED
:1027B0000860E16A01EB81011C4A02EB8100211DE6
:1027C000FFF708F91A49E06A0968C96A8842C7D35D
:1027D0004FF00108C4E700BF15480068C06A00EB6D
:1027E0008000124951F82000012801D94FF001085A
:1027F0001048006808B14FF0010805E0FFE70E48F7
:102800000068401C0C4908604046BDE8F0810000AB
:102810006400002040000020300000203400002030
:10282000540000205C00002044000020B001002083
:102830002C000020500000204C00002070B5054600
:102840002C460026002D55D02B480068844201D12B
:10285000012000E0002050B900BF502080F3118813
:10286000BFF34F8FBFF36F8F00BF00BFFEE7E06C79
:1028700050B900BF502080F31188BFF34F8FBFF3D2
:102880006F8F00BF00BFFEE7E06C401EE064A16CEC
:10289000E06A88422ED0E06C60BB201DFFF75CF838
:1028A00078B9E06A00EB8000144951F8200040B983
:1028B00094F82C1001208840114909688143104880
:1028C0000160A06CE062E06AC0F10500A06194F8CC
:1028D0002C10012088400A4909680843084908600B
:1028E000E16A01EB8101054A02EB8100211DFFF73E
:1028F00071F80126304670BD2C000020B001002088
:102900004400002070B50646F068C46854B900BFA2
:10291000502080F31188BFF34F8FBFF36F8F00BF3C
:1029200000BFFEE704F11800FFF716F8154800682D
:10293000A8B9201DFFF710F894F82C10012088404A
:1029400011490968084310490860E16A01EB8101F7
:102950000E4A02EB8100211DFFF73CF804E004F170
:1029600018010B48FFF736F80A49E06A0968C96A96
:10297000884204D9012501200749086000E00025AC
:10298000284670BD6400002044000020B0010020F3
:102990003C0200202C0000205000002070B50024D4
:1029A00000263648006850B900BF502080F31188D7
:1029B000BFF34F8FBFF36F8F00BF00BFFEE7FFF77E
:1029C00015F82E480068401E2C490860084600682B
:1029D00000284FD12A48006800284BD024E029481D
:1029E000C068C46804F11800FEF7B6FF201DFEF7AA
:1029F000B3FF94F82C10012088402349096808434C
:102A000021490860E16A01EB8101204A02EB810063
:102A1000211DFEF7DFFF1E49E06A0968C96A884286
:102A200002D301201B4908601648006808B901203C
:102A300000E000200028D2D00CB1FEF7EDFC1648D3
:102A4000056865B100BFFFF755FE10B101201149BF
:102A500008606D1E002DF6D100200F4908600D485A
:102A6000006838B1012630070C490860BFF34F8F6A
:102A7000BFF36F8FFEF7E4FF304670BD64000020A7
:102A80003C0000203C02002044000020B001002057
:102A90002C000020500000204C00002004ED00E03D
:102AA0001CB50024FEF76AF90E48006858B10E48BC
:102AB000022100234FF48272CDE900100BA10D48D2
:102AC000FFF7D2FD044654B900BF502080F31188AF
:102AD000BFF34F8FBFF36F8F00BF00BFFEE72046ED
:102AE0001CBD00007000002074000020546D722096
:102AF000537663005D1500082DE9FE4304460D463C
:102B000016461F46DDF828804FF0000954B900BF73
:102B1000502080F31188BFF34F8FBFF36F8F00BF3A
:102B200000BFFEE71448006810B3009501960294B8
:102B3000062D15DAFFF7C8FD022808D1002342460A
:102B400069460D480068FFF743FB814610E000230B
:102B50001A46694608480068FFF73AFB814607E0D5
:102B600000233A46694604480068FFF705FC8146A1
:102B70004846BDE8FE830000700000204FF0407022
:102B8000E1EE100A70470000A82B000800000020AA
:102B9000A8000000C4010008502C0008A800002074
:102BA00058340100E00100080000000000000000AF
:102BB00000000000007A030A00000000000000008E
:102BC00001020304060708090000000000000000DD
:102BD00000000000000000000000000000000000F5
:102BE00000000000000000000000000000000000E5
:102BF00000000000000000000000000000000000D5
:102C000000000000000000000000000000000000C4
:102C100000000000000000000000000000000000B4
:102C200000000000000000000000000000000000A4
:102C30000000000000000000000000000000000094
:102C400000000000AAAAAAAA0000000000000000DC
:040000050800018965
:00000001FF
